{
  "_format": "hh-sol-artifact-1",
  "contractName": "StoreContract",
  "sourceName": "contracts/Store.sol",
  "abi": [
    {
      "inputs": [],
      "stateMutability": "nonpayable",
      "type": "constructor"
    },
    {
      "anonymous": false,
      "inputs": [
        {
          "indexed": true,
          "internalType": "address",
          "name": "owner",
          "type": "address"
        },
        {
          "indexed": true,
          "internalType": "address",
          "name": "approved",
          "type": "address"
        },
        {
          "indexed": true,
          "internalType": "uint256",
          "name": "tokenId",
          "type": "uint256"
        }
      ],
      "name": "Approval",
      "type": "event"
    },
    {
      "anonymous": false,
      "inputs": [
        {
          "indexed": true,
          "internalType": "address",
          "name": "owner",
          "type": "address"
        },
        {
          "indexed": true,
          "internalType": "address",
          "name": "operator",
          "type": "address"
        },
        {
          "indexed": false,
          "internalType": "bool",
          "name": "approved",
          "type": "bool"
        }
      ],
      "name": "ApprovalForAll",
      "type": "event"
    },
    {
      "anonymous": false,
      "inputs": [
        {
          "indexed": false,
          "internalType": "uint256",
          "name": "itemId",
          "type": "uint256"
        },
        {
          "indexed": false,
          "internalType": "bool",
          "name": "status",
          "type": "bool"
        }
      ],
      "name": "ChangeListingStatus",
      "type": "event"
    },
    {
      "anonymous": false,
      "inputs": [
        {
          "indexed": false,
          "internalType": "uint256",
          "name": "itemId",
          "type": "uint256"
        },
        {
          "indexed": false,
          "internalType": "string",
          "name": "metadata",
          "type": "string"
        },
        {
          "indexed": false,
          "internalType": "string",
          "name": "category",
          "type": "string"
        }
      ],
      "name": "CreatedStore",
      "type": "event"
    },
    {
      "anonymous": false,
      "inputs": [
        {
          "indexed": false,
          "internalType": "uint256",
          "name": "itemId",
          "type": "uint256"
        },
        {
          "indexed": false,
          "internalType": "uint256",
          "name": "itemPrice",
          "type": "uint256"
        },
        {
          "indexed": false,
          "internalType": "bool",
          "name": "listingSatus",
          "type": "bool"
        }
      ],
      "name": "PostedItem",
      "type": "event"
    },
    {
      "anonymous": false,
      "inputs": [
        {
          "indexed": false,
          "internalType": "uint256",
          "name": "itemId",
          "type": "uint256"
        },
        {
          "indexed": false,
          "internalType": "uint256",
          "name": "newPrice",
          "type": "uint256"
        }
      ],
      "name": "PriceUpdated",
      "type": "event"
    },
    {
      "anonymous": false,
      "inputs": [
        {
          "indexed": true,
          "internalType": "address",
          "name": "from",
          "type": "address"
        },
        {
          "indexed": true,
          "internalType": "address",
          "name": "to",
          "type": "address"
        },
        {
          "indexed": true,
          "internalType": "uint256",
          "name": "tokenId",
          "type": "uint256"
        }
      ],
      "name": "Transfer",
      "type": "event"
    },
    {
      "inputs": [
        {
          "internalType": "address",
          "name": "to",
          "type": "address"
        },
        {
          "internalType": "uint256",
          "name": "tokenId",
          "type": "uint256"
        }
      ],
      "name": "approve",
      "outputs": [],
      "stateMutability": "nonpayable",
      "type": "function"
    },
    {
      "inputs": [
        {
          "internalType": "address",
          "name": "owner",
          "type": "address"
        }
      ],
      "name": "balanceOf",
      "outputs": [
        {
          "internalType": "uint256",
          "name": "",
          "type": "uint256"
        }
      ],
      "stateMutability": "view",
      "type": "function"
    },
    {
      "inputs": [
        {
          "internalType": "uint256",
          "name": "_storeId",
          "type": "uint256"
        },
        {
          "internalType": "uint256",
          "name": "_itemId",
          "type": "uint256"
        }
      ],
      "name": "buyItem",
      "outputs": [],
      "stateMutability": "payable",
      "type": "function"
    },
    {
      "inputs": [
        {
          "internalType": "uint256",
          "name": "_storeId",
          "type": "uint256"
        },
        {
          "internalType": "uint256",
          "name": "_itemId",
          "type": "uint256"
        },
        {
          "internalType": "uint256",
          "name": "_newPrice",
          "type": "uint256"
        }
      ],
      "name": "changeItemPrice",
      "outputs": [],
      "stateMutability": "nonpayable",
      "type": "function"
    },
    {
      "inputs": [
        {
          "internalType": "uint256",
          "name": "_storeId",
          "type": "uint256"
        },
        {
          "internalType": "uint256",
          "name": "_itemId",
          "type": "uint256"
        }
      ],
      "name": "changeListingStatus",
      "outputs": [],
      "stateMutability": "nonpayable",
      "type": "function"
    },
    {
      "inputs": [
        {
          "internalType": "string",
          "name": "_metadata",
          "type": "string"
        },
        {
          "internalType": "string",
          "name": "_category",
          "type": "string"
        }
      ],
      "name": "createStore",
      "outputs": [],
      "stateMutability": "nonpayable",
      "type": "function"
    },
    {
      "inputs": [
        {
          "internalType": "uint256",
          "name": "_storeId",
          "type": "uint256"
        }
      ],
      "name": "deleteStore",
      "outputs": [],
      "stateMutability": "nonpayable",
      "type": "function"
    },
    {
      "inputs": [
        {
          "internalType": "uint256",
          "name": "tokenId",
          "type": "uint256"
        }
      ],
      "name": "getApproved",
      "outputs": [
        {
          "internalType": "address",
          "name": "",
          "type": "address"
        }
      ],
      "stateMutability": "view",
      "type": "function"
    },
    {
      "inputs": [
        {
          "internalType": "address",
          "name": "owner",
          "type": "address"
        },
        {
          "internalType": "address",
          "name": "operator",
          "type": "address"
        }
      ],
      "name": "isApprovedForAll",
      "outputs": [
        {
          "internalType": "bool",
          "name": "",
          "type": "bool"
        }
      ],
      "stateMutability": "view",
      "type": "function"
    },
    {
      "inputs": [],
      "name": "name",
      "outputs": [
        {
          "internalType": "string",
          "name": "",
          "type": "string"
        }
      ],
      "stateMutability": "view",
      "type": "function"
    },
    {
      "inputs": [
        {
          "internalType": "uint256",
          "name": "tokenId",
          "type": "uint256"
        }
      ],
      "name": "ownerOf",
      "outputs": [
        {
          "internalType": "address",
          "name": "",
          "type": "address"
        }
      ],
      "stateMutability": "view",
      "type": "function"
    },
    {
      "inputs": [
        {
          "internalType": "string",
          "name": "_metadata",
          "type": "string"
        },
        {
          "internalType": "uint256",
          "name": "_storeId",
          "type": "uint256"
        },
        {
          "internalType": "uint256",
          "name": "_price",
          "type": "uint256"
        }
      ],
      "name": "postItem",
      "outputs": [],
      "stateMutability": "nonpayable",
      "type": "function"
    },
    {
      "inputs": [
        {
          "internalType": "address",
          "name": "from",
          "type": "address"
        },
        {
          "internalType": "address",
          "name": "to",
          "type": "address"
        },
        {
          "internalType": "uint256",
          "name": "tokenId",
          "type": "uint256"
        }
      ],
      "name": "safeTransferFrom",
      "outputs": [],
      "stateMutability": "nonpayable",
      "type": "function"
    },
    {
      "inputs": [
        {
          "internalType": "address",
          "name": "from",
          "type": "address"
        },
        {
          "internalType": "address",
          "name": "to",
          "type": "address"
        },
        {
          "internalType": "uint256",
          "name": "tokenId",
          "type": "uint256"
        },
        {
          "internalType": "bytes",
          "name": "_data",
          "type": "bytes"
        }
      ],
      "name": "safeTransferFrom",
      "outputs": [],
      "stateMutability": "nonpayable",
      "type": "function"
    },
    {
      "inputs": [
        {
          "internalType": "address",
          "name": "operator",
          "type": "address"
        },
        {
          "internalType": "bool",
          "name": "approved",
          "type": "bool"
        }
      ],
      "name": "setApprovalForAll",
      "outputs": [],
      "stateMutability": "nonpayable",
      "type": "function"
    },
    {
      "inputs": [
        {
          "internalType": "bytes4",
          "name": "interfaceId",
          "type": "bytes4"
        }
      ],
      "name": "supportsInterface",
      "outputs": [
        {
          "internalType": "bool",
          "name": "",
          "type": "bool"
        }
      ],
      "stateMutability": "view",
      "type": "function"
    },
    {
      "inputs": [],
      "name": "symbol",
      "outputs": [
        {
          "internalType": "string",
          "name": "",
          "type": "string"
        }
      ],
      "stateMutability": "view",
      "type": "function"
    },
    {
      "inputs": [
        {
          "internalType": "uint256",
          "name": "tokenId",
          "type": "uint256"
        }
      ],
      "name": "tokenURI",
      "outputs": [
        {
          "internalType": "string",
          "name": "",
          "type": "string"
        }
      ],
      "stateMutability": "view",
      "type": "function"
    },
    {
      "inputs": [
        {
          "internalType": "address",
          "name": "from",
          "type": "address"
        },
        {
          "internalType": "address",
          "name": "to",
          "type": "address"
        },
        {
          "internalType": "uint256",
          "name": "tokenId",
          "type": "uint256"
        }
      ],
      "name": "transferFrom",
      "outputs": [],
      "stateMutability": "nonpayable",
      "type": "function"
    }
  ],
  "bytecode": "0x60806040523480156200001157600080fd5b506040518060400160405280600a81526020017f447265652053746f7265000000000000000000000000000000000000000000008152506040518060400160405280600381526020017f4453540000000000000000000000000000000000000000000000000000000000815250816000908051906020019062000096929190620000b8565b508060019080519060200190620000af929190620000b8565b505050620001cd565b828054620000c69062000168565b90600052602060002090601f016020900481019282620000ea576000855562000136565b82601f106200010557805160ff191683800117855562000136565b8280016001018555821562000136579182015b828111156200013557825182559160200191906001019062000118565b5b50905062000145919062000149565b5090565b5b80821115620001645760008160009055506001016200014a565b5090565b600060028204905060018216806200018157607f821691505b602082108114156200019857620001976200019e565b5b50919050565b7f4e487b7100000000000000000000000000000000000000000000000000000000600052602260045260246000fd5b6137d580620001dd6000396000f3fe6080604052600436106101145760003560e01c80637cc69325116100a0578063b88d4fde11610064578063b88d4fde1461039e578063c87b56dd146103c7578063ddf9bc6e14610404578063e37afe511461042d578063e985e9c51461045657610114565b80637cc69325146102dc57806395d89b41146103055780639979c00914610330578063a22cb4651461034c578063aa82d2b01461037557610114565b80631b20335d116100e75780631b20335d146101e757806323b872dd1461021057806342842e0e146102395780636352211e1461026257806370a082311461029f57610114565b806301ffc9a71461011957806306fdde0314610156578063081812fc14610181578063095ea7b3146101be575b600080fd5b34801561012557600080fd5b50610140600480360381019061013b91906125a9565b610493565b60405161014d9190612b62565b60405180910390f35b34801561016257600080fd5b5061016b610575565b6040516101789190612bb4565b60405180910390f35b34801561018d57600080fd5b506101a860048036038101906101a391906126ce565b610607565b6040516101b59190612afb565b60405180910390f35b3480156101ca57600080fd5b506101e560048036038101906101e0919061256d565b61068c565b005b3480156101f357600080fd5b5061020e600480360381019061020991906125fb565b6107a4565b005b34801561021c57600080fd5b5061023760048036038101906102329190612467565b610806565b005b34801561024557600080fd5b50610260600480360381019061025b9190612467565b610866565b005b34801561026e57600080fd5b50610289600480360381019061028491906126ce565b610886565b6040516102969190612afb565b60405180910390f35b3480156102ab57600080fd5b506102c660048036038101906102c19190612402565b610938565b6040516102d39190612e16565b60405180910390f35b3480156102e857600080fd5b5061030360048036038101906102fe91906126ce565b6109f0565b005b34801561031157600080fd5b5061031a610aba565b6040516103279190612bb4565b60405180910390f35b61034a600480360381019061034591906126f7565b610b4c565b005b34801561035857600080fd5b50610373600480360381019061036e9190612531565b610d42565b005b34801561038157600080fd5b5061039c600480360381019061039791906126f7565b610d58565b005b3480156103aa57600080fd5b506103c560048036038101906103c091906124b6565b610f61565b005b3480156103d357600080fd5b506103ee60048036038101906103e991906126ce565b610fc3565b6040516103fb9190612bb4565b60405180910390f35b34801561041057600080fd5b5061042b60048036038101906104269190612733565b61106a565b005b34801561043957600080fd5b50610454600480360381019061044f9190612667565b6112ac565b005b34801561046257600080fd5b5061047d6004803603810190610478919061242b565b61144a565b60405161048a9190612b62565b60405180910390f35b60007f80ac58cd000000000000000000000000000000000000000000000000000000007bffffffffffffffffffffffffffffffffffffffffffffffffffffffff1916827bffffffffffffffffffffffffffffffffffffffffffffffffffffffff1916148061055e57507f5b5e139f000000000000000000000000000000000000000000000000000000007bffffffffffffffffffffffffffffffffffffffffffffffffffffffff1916827bffffffffffffffffffffffffffffffffffffffffffffffffffffffff1916145b8061056e575061056d826114de565b5b9050919050565b60606000805461058490613115565b80601f01602080910402602001604051908101604052809291908181526020018280546105b090613115565b80156105fd5780601f106105d2576101008083540402835291602001916105fd565b820191906000526020600020905b8154815290600101906020018083116105e057829003601f168201915b5050505050905090565b600061061282611548565b610651576040517f08c379a000000000000000000000000000000000000000000000000000000000815260040161064890612d56565b60405180910390fd5b6004600083815260200190815260200160002060009054906101000a900473ffffffffffffffffffffffffffffffffffffffff169050919050565b600061069782610886565b90508073ffffffffffffffffffffffffffffffffffffffff168373ffffffffffffffffffffffffffffffffffffffff161415610708576040517f08c379a00000000000000000000000000000000000000000000000000000000081526004016106ff90612d96565b60405180910390fd5b8073ffffffffffffffffffffffffffffffffffffffff166107276115b4565b73ffffffffffffffffffffffffffffffffffffffff1614806107565750610755816107506115b4565b61144a565b5b610795576040517f08c379a000000000000000000000000000000000000000000000000000000000815260040161078c90612cd6565b60405180910390fd5b61079f83836115bc565b505050565b6107ae6006611675565b60006107ba600661168b565b90506107c63382611699565b7fc96b6b5ce7a6920263c8f81ff6e8387841bff2b235a55c75b4cfd20fff47253f8184846040516107f993929190612e5a565b60405180910390a1505050565b6108176108116115b4565b82611873565b610856576040517f08c379a000000000000000000000000000000000000000000000000000000000815260040161084d90612db6565b60405180910390fd5b610861838383611951565b505050565b61088183838360405180602001604052806000815250610f61565b505050565b6000806002600084815260200190815260200160002060009054906101000a900473ffffffffffffffffffffffffffffffffffffffff169050600073ffffffffffffffffffffffffffffffffffffffff168173ffffffffffffffffffffffffffffffffffffffff16141561092f576040517f08c379a000000000000000000000000000000000000000000000000000000000815260040161092690612d16565b60405180910390fd5b80915050919050565b60008073ffffffffffffffffffffffffffffffffffffffff168273ffffffffffffffffffffffffffffffffffffffff1614156109a9576040517f08c379a00000000000000000000000000000000000000000000000000000000081526004016109a090612cf6565b60405180910390fd5b600360008373ffffffffffffffffffffffffffffffffffffffff1673ffffffffffffffffffffffffffffffffffffffff168152602001908152602001600020549050919050565b6109f981611548565b610a38576040517f08c379a0000000000000000000000000000000000000000000000000000000008152600401610a2f90612bd6565b60405180910390fd5b610a4181610886565b73ffffffffffffffffffffffffffffffffffffffff163373ffffffffffffffffffffffffffffffffffffffff1614610aae576040517f08c379a0000000000000000000000000000000000000000000000000000000008152600401610aa590612c16565b60405180910390fd5b610ab781611bb8565b50565b606060018054610ac990613115565b80601f0160208091040260200160405190810160405280929190818152602001828054610af590613115565b8015610b425780601f10610b1757610100808354040283529160200191610b42565b820191906000526020600020905b815481529060010190602001808311610b2557829003601f168201915b5050505050905090565b610b5582611548565b610b94576040517f08c379a0000000000000000000000000000000000000000000000000000000008152600401610b8b90612bd6565b60405180910390fd5b6000610b9f83610886565b90506000600760008581526020019081526020016000206000848152602001908152602001600020604051806080016040529081600082018054610be290613115565b80601f0160208091040260200160405190810160405280929190818152602001828054610c0e90613115565b8015610c5b5780601f10610c3057610100808354040283529160200191610c5b565b820191906000526020600020905b815481529060010190602001808311610c3e57829003601f168201915b5050505050815260200160018201548152602001600282015481526020016003820160009054906101000a900460ff161515151581525050905080602001513414610cdb576040517f08c379a0000000000000000000000000000000000000000000000000000000008152600401610cd290612dd6565b60405180910390fd5b8173ffffffffffffffffffffffffffffffffffffffff166108fc349081150290604051600060405180830381858888f19350505050158015610d21573d6000803e3d6000fd5b5060018160400151610d339190612f92565b81604001818152505050505050565b610d54610d4d6115b4565b8383611cd5565b5050565b610d6182611548565b610da0576040517f08c379a0000000000000000000000000000000000000000000000000000000008152600401610d9790612bd6565b60405180910390fd5b610da982610886565b73ffffffffffffffffffffffffffffffffffffffff163373ffffffffffffffffffffffffffffffffffffffff1614610e16576040517f08c379a0000000000000000000000000000000000000000000000000000000008152600401610e0d90612c16565b60405180910390fd5b6000600760008481526020019081526020016000206000838152602001908152602001600020604051806080016040529081600082018054610e5790613115565b80601f0160208091040260200160405190810160405280929190818152602001828054610e8390613115565b8015610ed05780601f10610ea557610100808354040283529160200191610ed0565b820191906000526020600020905b815481529060010190602001808311610eb357829003601f168201915b5050505050815260200160018201548152602001600282015481526020016003820160009054906101000a900460ff16151515158152505090508060600151158160600190151590811515815250507f521c435f732e5f934eacdad1df112b0d7ee8f3782ebb8c1e0e969a9c09f4548d828260600151604051610f54929190612e31565b60405180910390a1505050565b610f72610f6c6115b4565b83611873565b610fb1576040517f08c379a0000000000000000000000000000000000000000000000000000000008152600401610fa890612db6565b60405180910390fd5b610fbd84848484611e42565b50505050565b6060610fce82611548565b61100d576040517f08c379a000000000000000000000000000000000000000000000000000000000815260040161100490612d76565b60405180910390fd5b6000611017611e9e565b905060008151116110375760405180602001604052806000815250611062565b8061104184611eb5565b604051602001611052929190612ad7565b6040516020818303038152906040525b915050919050565b61107383611548565b6110b2576040517f08c379a00000000000000000000000000000000000000000000000000000000081526004016110a990612bd6565b60405180910390fd5b6110bb83610886565b73ffffffffffffffffffffffffffffffffffffffff163373ffffffffffffffffffffffffffffffffffffffff1614611128576040517f08c379a000000000000000000000000000000000000000000000000000000000815260040161111f90612c16565b60405180910390fd5b600060076000858152602001908152602001600020600084815260200190815260200160002060405180608001604052908160008201805461116990613115565b80601f016020809104026020016040519081016040528092919081815260200182805461119590613115565b80156111e25780601f106111b7576101008083540402835291602001916111e2565b820191906000526020600020905b8154815290600101906020018083116111c557829003601f168201915b5050505050815260200160018201548152602001600282015481526020016003820160009054906101000a900460ff16151515158152505090508181602001511415611263576040517f08c379a000000000000000000000000000000000000000000000000000000000815260040161125a90612df6565b60405180910390fd5b818160200181815250507f945c1c4e99aa89f648fbfe3df471b916f719e16d960fcec0737d4d56bd696838838360405161129e929190612e9f565b60405180910390a150505050565b6112b582611548565b6112f4576040517f08c379a00000000000000000000000000000000000000000000000000000000081526004016112eb90612bd6565b60405180910390fd5b6112fd82610886565b73ffffffffffffffffffffffffffffffffffffffff163373ffffffffffffffffffffffffffffffffffffffff161461136a576040517f08c379a000000000000000000000000000000000000000000000000000000000815260040161136190612c16565b60405180910390fd5b604051806080016040528084815260200182815260200160008152602001600115158152506007600084815260200190815260200160002060006004815260200190815260200160002060008201518160000190805190602001906113d0929190612226565b50602082015181600101556040820151816002015560608201518160030160006101000a81548160ff0219169083151502179055509050507f7826174bbe73fb7c1029e4334bd590d4a49375d51c2be7caa26ceac2420c9a95600482600160405161143d93929190612b7d565b60405180910390a1505050565b6000600560008473ffffffffffffffffffffffffffffffffffffffff1673ffffffffffffffffffffffffffffffffffffffff16815260200190815260200160002060008373ffffffffffffffffffffffffffffffffffffffff1673ffffffffffffffffffffffffffffffffffffffff16815260200190815260200160002060009054906101000a900460ff16905092915050565b60007f01ffc9a7000000000000000000000000000000000000000000000000000000007bffffffffffffffffffffffffffffffffffffffffffffffffffffffff1916827bffffffffffffffffffffffffffffffffffffffffffffffffffffffff1916149050919050565b60008073ffffffffffffffffffffffffffffffffffffffff166002600084815260200190815260200160002060009054906101000a900473ffffffffffffffffffffffffffffffffffffffff1673ffffffffffffffffffffffffffffffffffffffff1614159050919050565b600033905090565b816004600083815260200190815260200160002060006101000a81548173ffffffffffffffffffffffffffffffffffffffff021916908373ffffffffffffffffffffffffffffffffffffffff160217905550808273ffffffffffffffffffffffffffffffffffffffff1661162f83610886565b73ffffffffffffffffffffffffffffffffffffffff167f8c5be1e5ebec7d5bd14f71427d1e84f3dd0314c0f7b2291e5b200ac8c7c3b92560405160405180910390a45050565b6001816000016000828254019250508190555050565b600081600001549050919050565b600073ffffffffffffffffffffffffffffffffffffffff168273ffffffffffffffffffffffffffffffffffffffff161415611709576040517f08c379a000000000000000000000000000000000000000000000000000000000815260040161170090612d36565b60405180910390fd5b61171281611548565b15611752576040517f08c379a000000000000000000000000000000000000000000000000000000000815260040161174990612c56565b60405180910390fd5b61175e60008383612062565b6001600360008473ffffffffffffffffffffffffffffffffffffffff1673ffffffffffffffffffffffffffffffffffffffff16815260200190815260200160002060008282546117ae9190612f92565b92505081905550816002600083815260200190815260200160002060006101000a81548173ffffffffffffffffffffffffffffffffffffffff021916908373ffffffffffffffffffffffffffffffffffffffff160217905550808273ffffffffffffffffffffffffffffffffffffffff16600073ffffffffffffffffffffffffffffffffffffffff167fddf252ad1be2c89b69c2b068fc378daa952ba7f163c4a11628f55a4df523b3ef60405160405180910390a461186f60008383612067565b5050565b600061187e82611548565b6118bd576040517f08c379a00000000000000000000000000000000000000000000000000000000081526004016118b490612cb6565b60405180910390fd5b60006118c883610886565b90508073ffffffffffffffffffffffffffffffffffffffff168473ffffffffffffffffffffffffffffffffffffffff16148061190a5750611909818561144a565b5b8061194857508373ffffffffffffffffffffffffffffffffffffffff1661193084610607565b73ffffffffffffffffffffffffffffffffffffffff16145b91505092915050565b8273ffffffffffffffffffffffffffffffffffffffff1661197182610886565b73ffffffffffffffffffffffffffffffffffffffff16146119c7576040517f08c379a00000000000000000000000000000000000000000000000000000000081526004016119be90612c36565b60405180910390fd5b600073ffffffffffffffffffffffffffffffffffffffff168273ffffffffffffffffffffffffffffffffffffffff161415611a37576040517f08c379a0000000000000000000000000000000000000000000000000000000008152600401611a2e90612c76565b60405180910390fd5b611a42838383612062565b611a4d6000826115bc565b6001600360008573ffffffffffffffffffffffffffffffffffffffff1673ffffffffffffffffffffffffffffffffffffffff1681526020019081526020016000206000828254611a9d9190613019565b925050819055506001600360008473ffffffffffffffffffffffffffffffffffffffff1673ffffffffffffffffffffffffffffffffffffffff1681526020019081526020016000206000828254611af49190612f92565b92505081905550816002600083815260200190815260200160002060006101000a81548173ffffffffffffffffffffffffffffffffffffffff021916908373ffffffffffffffffffffffffffffffffffffffff160217905550808273ffffffffffffffffffffffffffffffffffffffff168473ffffffffffffffffffffffffffffffffffffffff167fddf252ad1be2c89b69c2b068fc378daa952ba7f163c4a11628f55a4df523b3ef60405160405180910390a4611bb3838383612067565b505050565b6000611bc382610886565b9050611bd181600084612062565b611bdc6000836115bc565b6001600360008373ffffffffffffffffffffffffffffffffffffffff1673ffffffffffffffffffffffffffffffffffffffff1681526020019081526020016000206000828254611c2c9190613019565b925050819055506002600083815260200190815260200160002060006101000a81549073ffffffffffffffffffffffffffffffffffffffff021916905581600073ffffffffffffffffffffffffffffffffffffffff168273ffffffffffffffffffffffffffffffffffffffff167fddf252ad1be2c89b69c2b068fc378daa952ba7f163c4a11628f55a4df523b3ef60405160405180910390a4611cd181600084612067565b5050565b8173ffffffffffffffffffffffffffffffffffffffff168373ffffffffffffffffffffffffffffffffffffffff161415611d44576040517f08c379a0000000000000000000000000000000000000000000000000000000008152600401611d3b90612c96565b60405180910390fd5b80600560008573ffffffffffffffffffffffffffffffffffffffff1673ffffffffffffffffffffffffffffffffffffffff16815260200190815260200160002060008473ffffffffffffffffffffffffffffffffffffffff1673ffffffffffffffffffffffffffffffffffffffff16815260200190815260200160002060006101000a81548160ff0219169083151502179055508173ffffffffffffffffffffffffffffffffffffffff168373ffffffffffffffffffffffffffffffffffffffff167f17307eab39ab6107e8899845ad3d59bd9653f200f220920489ca2b5937696c3183604051611e359190612b62565b60405180910390a3505050565b611e4d848484611951565b611e598484848461206c565b611e98576040517f08c379a0000000000000000000000000000000000000000000000000000000008152600401611e8f90612bf6565b60405180910390fd5b50505050565b606060405180602001604052806000815250905090565b60606000821415611efd576040518060400160405280600181526020017f3000000000000000000000000000000000000000000000000000000000000000815250905061205d565b600082905060005b60008214611f2f578080611f1890613178565b915050600a82611f289190612fe8565b9150611f05565b60008167ffffffffffffffff811115611f71577f4e487b7100000000000000000000000000000000000000000000000000000000600052604160045260246000fd5b6040519080825280601f01601f191660200182016040528015611fa35781602001600182028036833780820191505090505b5090505b6000851461205657600182611fbc9190613019565b9150600a85611fcb91906131c1565b6030611fd79190612f92565b60f81b818381518110612013577f4e487b7100000000000000000000000000000000000000000000000000000000600052603260045260246000fd5b60200101907effffffffffffffffffffffffffffffffffffffffffffffffffffffffffffff1916908160001a905350600a8561204f9190612fe8565b9450611fa7565b8093505050505b919050565b505050565b505050565b600061208d8473ffffffffffffffffffffffffffffffffffffffff16612203565b156121f6578373ffffffffffffffffffffffffffffffffffffffff1663150b7a026120b66115b4565b8786866040518563ffffffff1660e01b81526004016120d89493929190612b16565b602060405180830381600087803b1580156120f257600080fd5b505af192505050801561212357506040513d601f19601f8201168201806040525081019061212091906125d2565b60015b6121a6573d8060008114612153576040519150601f19603f3d011682016040523d82523d6000602084013e612158565b606091505b5060008151141561219e576040517f08c379a000000000000000000000000000000000000000000000000000000000815260040161219590612bf6565b60405180910390fd5b805181602001fd5b63150b7a0260e01b7bffffffffffffffffffffffffffffffffffffffffffffffffffffffff1916817bffffffffffffffffffffffffffffffffffffffffffffffffffffffff1916149150506121fb565b600190505b949350505050565b6000808273ffffffffffffffffffffffffffffffffffffffff163b119050919050565b82805461223290613115565b90600052602060002090601f016020900481019282612254576000855561229b565b82601f1061226d57805160ff191683800117855561229b565b8280016001018555821561229b579182015b8281111561229a57825182559160200191906001019061227f565b5b5090506122a891906122ac565b5090565b5b808211156122c55760008160009055506001016122ad565b5090565b60006122dc6122d784612eed565b612ec8565b9050828152602081018484840111156122f457600080fd5b6122ff8482856130d3565b509392505050565b600061231a61231584612f1e565b612ec8565b90508281526020810184848401111561233257600080fd5b61233d8482856130d3565b509392505050565b60008135905061235481613743565b92915050565b6000813590506123698161375a565b92915050565b60008135905061237e81613771565b92915050565b60008151905061239381613771565b92915050565b600082601f8301126123aa57600080fd5b81356123ba8482602086016122c9565b91505092915050565b600082601f8301126123d457600080fd5b81356123e4848260208601612307565b91505092915050565b6000813590506123fc81613788565b92915050565b60006020828403121561241457600080fd5b600061242284828501612345565b91505092915050565b6000806040838503121561243e57600080fd5b600061244c85828601612345565b925050602061245d85828601612345565b9150509250929050565b60008060006060848603121561247c57600080fd5b600061248a86828701612345565b935050602061249b86828701612345565b92505060406124ac868287016123ed565b9150509250925092565b600080600080608085870312156124cc57600080fd5b60006124da87828801612345565b94505060206124eb87828801612345565b93505060406124fc878288016123ed565b925050606085013567ffffffffffffffff81111561251957600080fd5b61252587828801612399565b91505092959194509250565b6000806040838503121561254457600080fd5b600061255285828601612345565b92505060206125638582860161235a565b9150509250929050565b6000806040838503121561258057600080fd5b600061258e85828601612345565b925050602061259f858286016123ed565b9150509250929050565b6000602082840312156125bb57600080fd5b60006125c98482850161236f565b91505092915050565b6000602082840312156125e457600080fd5b60006125f284828501612384565b91505092915050565b6000806040838503121561260e57600080fd5b600083013567ffffffffffffffff81111561262857600080fd5b612634858286016123c3565b925050602083013567ffffffffffffffff81111561265157600080fd5b61265d858286016123c3565b9150509250929050565b60008060006060848603121561267c57600080fd5b600084013567ffffffffffffffff81111561269657600080fd5b6126a2868287016123c3565b93505060206126b3868287016123ed565b92505060406126c4868287016123ed565b9150509250925092565b6000602082840312156126e057600080fd5b60006126ee848285016123ed565b91505092915050565b6000806040838503121561270a57600080fd5b6000612718858286016123ed565b9250506020612729858286016123ed565b9150509250929050565b60008060006060848603121561274857600080fd5b6000612756868287016123ed565b9350506020612767868287016123ed565b9250506040612778868287016123ed565b9150509250925092565b61278b8161304d565b82525050565b61279a8161305f565b82525050565b60006127ab82612f4f565b6127b58185612f65565b93506127c58185602086016130e2565b6127ce816132ae565b840191505092915050565b6127e2816130c1565b82525050565b60006127f382612f5a565b6127fd8185612f76565b935061280d8185602086016130e2565b612816816132ae565b840191505092915050565b600061282c82612f5a565b6128368185612f87565b93506128468185602086016130e2565b80840191505092915050565b600061285f601383612f76565b915061286a826132bf565b602082019050919050565b6000612882603283612f76565b915061288d826132e8565b604082019050919050565b60006128a5600e83612f76565b91506128b082613337565b602082019050919050565b60006128c8602583612f76565b91506128d382613360565b604082019050919050565b60006128eb601c83612f76565b91506128f6826133af565b602082019050919050565b600061290e602483612f76565b9150612919826133d8565b604082019050919050565b6000612931601983612f76565b915061293c82613427565b602082019050919050565b6000612954602c83612f76565b915061295f82613450565b604082019050919050565b6000612977603883612f76565b91506129828261349f565b604082019050919050565b600061299a602a83612f76565b91506129a5826134ee565b604082019050919050565b60006129bd602983612f76565b91506129c88261353d565b604082019050919050565b60006129e0602083612f76565b91506129eb8261358c565b602082019050919050565b6000612a03602c83612f76565b9150612a0e826135b5565b604082019050919050565b6000612a26602f83612f76565b9150612a3182613604565b604082019050919050565b6000612a49602183612f76565b9150612a5482613653565b604082019050919050565b6000612a6c603183612f76565b9150612a77826136a2565b604082019050919050565b6000612a8f600c83612f76565b9150612a9a826136f1565b602082019050919050565b6000612ab2601983612f76565b9150612abd8261371a565b602082019050919050565b612ad1816130b7565b82525050565b6000612ae38285612821565b9150612aef8284612821565b91508190509392505050565b6000602082019050612b106000830184612782565b92915050565b6000608082019050612b2b6000830187612782565b612b386020830186612782565b612b456040830185612ac8565b8181036060830152612b5781846127a0565b905095945050505050565b6000602082019050612b776000830184612791565b92915050565b6000606082019050612b9260008301866127d9565b612b9f6020830185612ac8565b612bac6040830184612791565b949350505050565b60006020820190508181036000830152612bce81846127e8565b905092915050565b60006020820190508181036000830152612bef81612852565b9050919050565b60006020820190508181036000830152612c0f81612875565b9050919050565b60006020820190508181036000830152612c2f81612898565b9050919050565b60006020820190508181036000830152612c4f816128bb565b9050919050565b60006020820190508181036000830152612c6f816128de565b9050919050565b60006020820190508181036000830152612c8f81612901565b9050919050565b60006020820190508181036000830152612caf81612924565b9050919050565b60006020820190508181036000830152612ccf81612947565b9050919050565b60006020820190508181036000830152612cef8161296a565b9050919050565b60006020820190508181036000830152612d0f8161298d565b9050919050565b60006020820190508181036000830152612d2f816129b0565b9050919050565b60006020820190508181036000830152612d4f816129d3565b9050919050565b60006020820190508181036000830152612d6f816129f6565b9050919050565b60006020820190508181036000830152612d8f81612a19565b9050919050565b60006020820190508181036000830152612daf81612a3c565b9050919050565b60006020820190508181036000830152612dcf81612a5f565b9050919050565b60006020820190508181036000830152612def81612a82565b9050919050565b60006020820190508181036000830152612e0f81612aa5565b9050919050565b6000602082019050612e2b6000830184612ac8565b92915050565b6000604082019050612e466000830185612ac8565b612e536020830184612791565b9392505050565b6000606082019050612e6f6000830186612ac8565b8181036020830152612e8181856127e8565b90508181036040830152612e9581846127e8565b9050949350505050565b6000604082019050612eb46000830185612ac8565b612ec16020830184612ac8565b9392505050565b6000612ed2612ee3565b9050612ede8282613147565b919050565b6000604051905090565b600067ffffffffffffffff821115612f0857612f0761327f565b5b612f11826132ae565b9050602081019050919050565b600067ffffffffffffffff821115612f3957612f3861327f565b5b612f42826132ae565b9050602081019050919050565b600081519050919050565b600081519050919050565b600082825260208201905092915050565b600082825260208201905092915050565b600081905092915050565b6000612f9d826130b7565b9150612fa8836130b7565b9250827fffffffffffffffffffffffffffffffffffffffffffffffffffffffffffffffff03821115612fdd57612fdc6131f2565b5b828201905092915050565b6000612ff3826130b7565b9150612ffe836130b7565b92508261300e5761300d613221565b5b828204905092915050565b6000613024826130b7565b915061302f836130b7565b925082821015613042576130416131f2565b5b828203905092915050565b600061305882613097565b9050919050565b60008115159050919050565b60007fffffffff0000000000000000000000000000000000000000000000000000000082169050919050565b600073ffffffffffffffffffffffffffffffffffffffff82169050919050565b6000819050919050565b60006130cc826130b7565b9050919050565b82818337600083830152505050565b60005b838110156131005780820151818401526020810190506130e5565b8381111561310f576000848401525b50505050565b6000600282049050600182168061312d57607f821691505b6020821081141561314157613140613250565b5b50919050565b613150826132ae565b810181811067ffffffffffffffff8211171561316f5761316e61327f565b5b80604052505050565b6000613183826130b7565b91507fffffffffffffffffffffffffffffffffffffffffffffffffffffffffffffffff8214156131b6576131b56131f2565b5b600182019050919050565b60006131cc826130b7565b91506131d7836130b7565b9250826131e7576131e6613221565b5b828206905092915050565b7f4e487b7100000000000000000000000000000000000000000000000000000000600052601160045260246000fd5b7f4e487b7100000000000000000000000000000000000000000000000000000000600052601260045260246000fd5b7f4e487b7100000000000000000000000000000000000000000000000000000000600052602260045260246000fd5b7f4e487b7100000000000000000000000000000000000000000000000000000000600052604160045260246000fd5b6000601f19601f8301169050919050565b7f73746f726520646f65736e277420657869737400000000000000000000000000600082015250565b7f4552433732313a207472616e7366657220746f206e6f6e20455243373231526560008201527f63656976657220696d706c656d656e7465720000000000000000000000000000602082015250565b7f6e6f7420796f75722073746f7265000000000000000000000000000000000000600082015250565b7f4552433732313a207472616e736665722066726f6d20696e636f72726563742060008201527f6f776e6572000000000000000000000000000000000000000000000000000000602082015250565b7f4552433732313a20746f6b656e20616c7265616479206d696e74656400000000600082015250565b7f4552433732313a207472616e7366657220746f20746865207a65726f2061646460008201527f7265737300000000000000000000000000000000000000000000000000000000602082015250565b7f4552433732313a20617070726f766520746f2063616c6c657200000000000000600082015250565b7f4552433732313a206f70657261746f7220717565727920666f72206e6f6e657860008201527f697374656e7420746f6b656e0000000000000000000000000000000000000000602082015250565b7f4552433732313a20617070726f76652063616c6c6572206973206e6f74206f7760008201527f6e6572206e6f7220617070726f76656420666f7220616c6c0000000000000000602082015250565b7f4552433732313a2062616c616e636520717565727920666f7220746865207a6560008201527f726f206164647265737300000000000000000000000000000000000000000000602082015250565b7f4552433732313a206f776e657220717565727920666f72206e6f6e657869737460008201527f656e7420746f6b656e0000000000000000000000000000000000000000000000602082015250565b7f4552433732313a206d696e7420746f20746865207a65726f2061646472657373600082015250565b7f4552433732313a20617070726f76656420717565727920666f72206e6f6e657860008201527f697374656e7420746f6b656e0000000000000000000000000000000000000000602082015250565b7f4552433732314d657461646174613a2055524920717565727920666f72206e6f60008201527f6e6578697374656e7420746f6b656e0000000000000000000000000000000000602082015250565b7f4552433732313a20617070726f76616c20746f2063757272656e74206f776e6560008201527f7200000000000000000000000000000000000000000000000000000000000000602082015250565b7f4552433732313a207472616e736665722063616c6c6572206973206e6f74206f60008201527f776e6572206e6f7220617070726f766564000000000000000000000000000000602082015250565b7f57726f6e6720616d6f756e740000000000000000000000000000000000000000600082015250565b7f70726963652073686f756c6420626520646966666572656e7400000000000000600082015250565b61374c8161304d565b811461375757600080fd5b50565b6137638161305f565b811461376e57600080fd5b50565b61377a8161306b565b811461378557600080fd5b50565b613791816130b7565b811461379c57600080fd5b5056fea2646970667358221220271cebe77ff850ece4c96b03f4d9f38f4c122eb85828a29bb3f313ea608e7fb064736f6c63430008040033",
  "linkReferences": {},
  "deployedLinkReferences": {}
}