{
  "_format": "hh-sol-artifact-1",
  "contractName": "StoreContract",
  "sourceName": "contracts/Store.sol",
  "abi": [
    {
      "inputs": [],
      "stateMutability": "nonpayable",
      "type": "constructor"
    },
    {
      "anonymous": false,
      "inputs": [
        {
          "indexed": true,
          "internalType": "address",
          "name": "owner",
          "type": "address"
        },
        {
          "indexed": true,
          "internalType": "address",
          "name": "approved",
          "type": "address"
        },
        {
          "indexed": true,
          "internalType": "uint256",
          "name": "tokenId",
          "type": "uint256"
        }
      ],
      "name": "Approval",
      "type": "event"
    },
    {
      "anonymous": false,
      "inputs": [
        {
          "indexed": true,
          "internalType": "address",
          "name": "owner",
          "type": "address"
        },
        {
          "indexed": true,
          "internalType": "address",
          "name": "operator",
          "type": "address"
        },
        {
          "indexed": false,
          "internalType": "bool",
          "name": "approved",
          "type": "bool"
        }
      ],
      "name": "ApprovalForAll",
      "type": "event"
    },
    {
      "anonymous": false,
      "inputs": [
        {
          "indexed": false,
          "internalType": "uint256",
          "name": "itemId",
          "type": "uint256"
        },
        {
          "indexed": false,
          "internalType": "bool",
          "name": "status",
          "type": "bool"
        }
      ],
      "name": "ChangeListingStatus",
      "type": "event"
    },
    {
      "anonymous": false,
      "inputs": [
        {
          "indexed": false,
          "internalType": "uint256",
          "name": "itemId",
          "type": "uint256"
        },
        {
          "indexed": false,
          "internalType": "string",
          "name": "category",
          "type": "string"
        }
      ],
      "name": "CreatedStore",
      "type": "event"
    },
    {
      "anonymous": false,
      "inputs": [
        {
          "indexed": false,
          "internalType": "uint256",
          "name": "itemId",
          "type": "uint256"
        },
        {
          "indexed": false,
          "internalType": "uint256",
          "name": "itemPrice",
          "type": "uint256"
        },
        {
          "indexed": false,
          "internalType": "bool",
          "name": "listingSatus",
          "type": "bool"
        }
      ],
      "name": "PostedItem",
      "type": "event"
    },
    {
      "anonymous": false,
      "inputs": [
        {
          "indexed": false,
          "internalType": "uint256",
          "name": "itemId",
          "type": "uint256"
        },
        {
          "indexed": false,
          "internalType": "uint256",
          "name": "newPrice",
          "type": "uint256"
        }
      ],
      "name": "PriceUpdated",
      "type": "event"
    },
    {
      "anonymous": false,
      "inputs": [
        {
          "indexed": true,
          "internalType": "address",
          "name": "from",
          "type": "address"
        },
        {
          "indexed": true,
          "internalType": "address",
          "name": "to",
          "type": "address"
        },
        {
          "indexed": true,
          "internalType": "uint256",
          "name": "tokenId",
          "type": "uint256"
        }
      ],
      "name": "Transfer",
      "type": "event"
    },
    {
      "inputs": [
        {
          "internalType": "address",
          "name": "to",
          "type": "address"
        },
        {
          "internalType": "uint256",
          "name": "tokenId",
          "type": "uint256"
        }
      ],
      "name": "approve",
      "outputs": [],
      "stateMutability": "nonpayable",
      "type": "function"
    },
    {
      "inputs": [
        {
          "internalType": "address",
          "name": "owner",
          "type": "address"
        }
      ],
      "name": "balanceOf",
      "outputs": [
        {
          "internalType": "uint256",
          "name": "",
          "type": "uint256"
        }
      ],
      "stateMutability": "view",
      "type": "function"
    },
    {
      "inputs": [
        {
          "internalType": "uint256",
          "name": "_storeId",
          "type": "uint256"
        },
        {
          "internalType": "uint256",
          "name": "_itemId",
          "type": "uint256"
        }
      ],
      "name": "buyItem",
      "outputs": [],
      "stateMutability": "payable",
      "type": "function"
    },
    {
      "inputs": [
        {
          "internalType": "uint256",
          "name": "_storeId",
          "type": "uint256"
        },
        {
          "internalType": "uint256",
          "name": "_itemId",
          "type": "uint256"
        },
        {
          "internalType": "uint256",
          "name": "_newPrice",
          "type": "uint256"
        }
      ],
      "name": "changeItemPrice",
      "outputs": [],
      "stateMutability": "nonpayable",
      "type": "function"
    },
    {
      "inputs": [
        {
          "internalType": "uint256",
          "name": "_storeId",
          "type": "uint256"
        },
        {
          "internalType": "uint256",
          "name": "_itemId",
          "type": "uint256"
        }
      ],
      "name": "changeListingStatus",
      "outputs": [],
      "stateMutability": "nonpayable",
      "type": "function"
    },
    {
      "inputs": [
        {
          "internalType": "string",
          "name": "_category",
          "type": "string"
        }
      ],
      "name": "createStore",
      "outputs": [],
      "stateMutability": "nonpayable",
      "type": "function"
    },
    {
      "inputs": [
        {
          "internalType": "uint256",
          "name": "_storeId",
          "type": "uint256"
        }
      ],
      "name": "deleteStore",
      "outputs": [],
      "stateMutability": "nonpayable",
      "type": "function"
    },
    {
      "inputs": [
        {
          "internalType": "uint256",
          "name": "tokenId",
          "type": "uint256"
        }
      ],
      "name": "getApproved",
      "outputs": [
        {
          "internalType": "address",
          "name": "",
          "type": "address"
        }
      ],
      "stateMutability": "view",
      "type": "function"
    },
    {
      "inputs": [
        {
          "internalType": "address",
          "name": "owner",
          "type": "address"
        },
        {
          "internalType": "address",
          "name": "operator",
          "type": "address"
        }
      ],
      "name": "isApprovedForAll",
      "outputs": [
        {
          "internalType": "bool",
          "name": "",
          "type": "bool"
        }
      ],
      "stateMutability": "view",
      "type": "function"
    },
    {
      "inputs": [],
      "name": "name",
      "outputs": [
        {
          "internalType": "string",
          "name": "",
          "type": "string"
        }
      ],
      "stateMutability": "view",
      "type": "function"
    },
    {
      "inputs": [
        {
          "internalType": "uint256",
          "name": "tokenId",
          "type": "uint256"
        }
      ],
      "name": "ownerOf",
      "outputs": [
        {
          "internalType": "address",
          "name": "",
          "type": "address"
        }
      ],
      "stateMutability": "view",
      "type": "function"
    },
    {
      "inputs": [
        {
          "internalType": "string",
          "name": "_metadata",
          "type": "string"
        },
        {
          "internalType": "uint256",
          "name": "_storeId",
          "type": "uint256"
        },
        {
          "internalType": "uint256",
          "name": "_price",
          "type": "uint256"
        }
      ],
      "name": "postItem",
      "outputs": [],
      "stateMutability": "nonpayable",
      "type": "function"
    },
    {
      "inputs": [
        {
          "internalType": "address",
          "name": "from",
          "type": "address"
        },
        {
          "internalType": "address",
          "name": "to",
          "type": "address"
        },
        {
          "internalType": "uint256",
          "name": "tokenId",
          "type": "uint256"
        }
      ],
      "name": "safeTransferFrom",
      "outputs": [],
      "stateMutability": "nonpayable",
      "type": "function"
    },
    {
      "inputs": [
        {
          "internalType": "address",
          "name": "from",
          "type": "address"
        },
        {
          "internalType": "address",
          "name": "to",
          "type": "address"
        },
        {
          "internalType": "uint256",
          "name": "tokenId",
          "type": "uint256"
        },
        {
          "internalType": "bytes",
          "name": "_data",
          "type": "bytes"
        }
      ],
      "name": "safeTransferFrom",
      "outputs": [],
      "stateMutability": "nonpayable",
      "type": "function"
    },
    {
      "inputs": [
        {
          "internalType": "address",
          "name": "operator",
          "type": "address"
        },
        {
          "internalType": "bool",
          "name": "approved",
          "type": "bool"
        }
      ],
      "name": "setApprovalForAll",
      "outputs": [],
      "stateMutability": "nonpayable",
      "type": "function"
    },
    {
      "inputs": [
        {
          "internalType": "bytes4",
          "name": "interfaceId",
          "type": "bytes4"
        }
      ],
      "name": "supportsInterface",
      "outputs": [
        {
          "internalType": "bool",
          "name": "",
          "type": "bool"
        }
      ],
      "stateMutability": "view",
      "type": "function"
    },
    {
      "inputs": [],
      "name": "symbol",
      "outputs": [
        {
          "internalType": "string",
          "name": "",
          "type": "string"
        }
      ],
      "stateMutability": "view",
      "type": "function"
    },
    {
      "inputs": [
        {
          "internalType": "uint256",
          "name": "tokenId",
          "type": "uint256"
        }
      ],
      "name": "tokenURI",
      "outputs": [
        {
          "internalType": "string",
          "name": "",
          "type": "string"
        }
      ],
      "stateMutability": "view",
      "type": "function"
    },
    {
      "inputs": [
        {
          "internalType": "address",
          "name": "from",
          "type": "address"
        },
        {
          "internalType": "address",
          "name": "to",
          "type": "address"
        },
        {
          "internalType": "uint256",
          "name": "tokenId",
          "type": "uint256"
        }
      ],
      "name": "transferFrom",
      "outputs": [],
      "stateMutability": "nonpayable",
      "type": "function"
    }
  ],
  "bytecode": "0x60806040523480156200001157600080fd5b506040518060400160405280600a81526020017f447265652053746f7265000000000000000000000000000000000000000000008152506040518060400160405280600381526020017f4453540000000000000000000000000000000000000000000000000000000000815250816000908051906020019062000096929190620000b8565b508060019080519060200190620000af929190620000b8565b505050620001cd565b828054620000c69062000168565b90600052602060002090601f016020900481019282620000ea576000855562000136565b82601f106200010557805160ff191683800117855562000136565b8280016001018555821562000136579182015b828111156200013557825182559160200191906001019062000118565b5b50905062000145919062000149565b5090565b5b80821115620001645760008160009055506001016200014a565b5090565b600060028204905060018216806200018157607f821691505b602082108114156200019857620001976200019e565b5b50919050565b7f4e487b7100000000000000000000000000000000000000000000000000000000600052602260045260246000fd5b61379280620001dd6000396000f3fe6080604052600436106101145760003560e01c806395d89b41116100a0578063c87b56dd11610064578063c87b56dd1461039e578063d0e04fe3146103db578063ddf9bc6e14610404578063e37afe511461042d578063e985e9c51461045657610114565b806395d89b41146102dc5780639979c00914610307578063a22cb46514610323578063aa82d2b01461034c578063b88d4fde1461037557610114565b806323b872dd116100e757806323b872dd146101e757806342842e0e146102105780636352211e1461023957806370a08231146102765780637cc69325146102b357610114565b806301ffc9a71461011957806306fdde0314610156578063081812fc14610181578063095ea7b3146101be575b600080fd5b34801561012557600080fd5b50610140600480360381019061013b91906125a6565b610493565b60405161014d9190612b34565b60405180910390f35b34801561016257600080fd5b5061016b610575565b6040516101789190612b86565b60405180910390f35b34801561018d57600080fd5b506101a860048036038101906101a391906126a0565b610607565b6040516101b59190612acd565b60405180910390f35b3480156101ca57600080fd5b506101e560048036038101906101e0919061256a565b61068c565b005b3480156101f357600080fd5b5061020e60048036038101906102099190612464565b6107a4565b005b34801561021c57600080fd5b5061023760048036038101906102329190612464565b610804565b005b34801561024557600080fd5b50610260600480360381019061025b91906126a0565b610824565b60405161026d9190612acd565b60405180910390f35b34801561028257600080fd5b5061029d600480360381019061029891906123ff565b6108d6565b6040516102aa9190612de8565b60405180910390f35b3480156102bf57600080fd5b506102da60048036038101906102d591906126a0565b61098e565b005b3480156102e857600080fd5b506102f1610a58565b6040516102fe9190612b86565b60405180910390f35b610321600480360381019061031c91906126c9565b610aea565b005b34801561032f57600080fd5b5061034a6004803603810190610345919061252e565b610ce0565b005b34801561035857600080fd5b50610373600480360381019061036e91906126c9565b610cf6565b005b34801561038157600080fd5b5061039c600480360381019061039791906124b3565b610eff565b005b3480156103aa57600080fd5b506103c560048036038101906103c091906126a0565b610f61565b6040516103d29190612b86565b60405180910390f35b3480156103e757600080fd5b5061040260048036038101906103fd91906125f8565b611008565b005b34801561041057600080fd5b5061042b60048036038101906104269190612705565b611067565b005b34801561043957600080fd5b50610454600480360381019061044f9190612639565b6112a9565b005b34801561046257600080fd5b5061047d60048036038101906104789190612428565b611447565b60405161048a9190612b34565b60405180910390f35b60007f80ac58cd000000000000000000000000000000000000000000000000000000007bffffffffffffffffffffffffffffffffffffffffffffffffffffffff1916827bffffffffffffffffffffffffffffffffffffffffffffffffffffffff1916148061055e57507f5b5e139f000000000000000000000000000000000000000000000000000000007bffffffffffffffffffffffffffffffffffffffffffffffffffffffff1916827bffffffffffffffffffffffffffffffffffffffffffffffffffffffff1916145b8061056e575061056d826114db565b5b9050919050565b606060008054610584906130d2565b80601f01602080910402602001604051908101604052809291908181526020018280546105b0906130d2565b80156105fd5780601f106105d2576101008083540402835291602001916105fd565b820191906000526020600020905b8154815290600101906020018083116105e057829003601f168201915b5050505050905090565b600061061282611545565b610651576040517f08c379a000000000000000000000000000000000000000000000000000000000815260040161064890612d28565b60405180910390fd5b6004600083815260200190815260200160002060009054906101000a900473ffffffffffffffffffffffffffffffffffffffff169050919050565b600061069782610824565b90508073ffffffffffffffffffffffffffffffffffffffff168373ffffffffffffffffffffffffffffffffffffffff161415610708576040517f08c379a00000000000000000000000000000000000000000000000000000000081526004016106ff90612d68565b60405180910390fd5b8073ffffffffffffffffffffffffffffffffffffffff166107276115b1565b73ffffffffffffffffffffffffffffffffffffffff1614806107565750610755816107506115b1565b611447565b5b610795576040517f08c379a000000000000000000000000000000000000000000000000000000000815260040161078c90612ca8565b60405180910390fd5b61079f83836115b9565b505050565b6107b56107af6115b1565b82611672565b6107f4576040517f08c379a00000000000000000000000000000000000000000000000000000000081526004016107eb90612d88565b60405180910390fd5b6107ff838383611750565b505050565b61081f83838360405180602001604052806000815250610eff565b505050565b6000806002600084815260200190815260200160002060009054906101000a900473ffffffffffffffffffffffffffffffffffffffff169050600073ffffffffffffffffffffffffffffffffffffffff168173ffffffffffffffffffffffffffffffffffffffff1614156108cd576040517f08c379a00000000000000000000000000000000000000000000000000000000081526004016108c490612ce8565b60405180910390fd5b80915050919050565b60008073ffffffffffffffffffffffffffffffffffffffff168273ffffffffffffffffffffffffffffffffffffffff161415610947576040517f08c379a000000000000000000000000000000000000000000000000000000000815260040161093e90612cc8565b60405180910390fd5b600360008373ffffffffffffffffffffffffffffffffffffffff1673ffffffffffffffffffffffffffffffffffffffff168152602001908152602001600020549050919050565b61099781611545565b6109d6576040517f08c379a00000000000000000000000000000000000000000000000000000000081526004016109cd90612ba8565b60405180910390fd5b6109df81610824565b73ffffffffffffffffffffffffffffffffffffffff163373ffffffffffffffffffffffffffffffffffffffff1614610a4c576040517f08c379a0000000000000000000000000000000000000000000000000000000008152600401610a4390612be8565b60405180910390fd5b610a55816119b7565b50565b606060018054610a67906130d2565b80601f0160208091040260200160405190810160405280929190818152602001828054610a93906130d2565b8015610ae05780601f10610ab557610100808354040283529160200191610ae0565b820191906000526020600020905b815481529060010190602001808311610ac357829003601f168201915b5050505050905090565b610af382611545565b610b32576040517f08c379a0000000000000000000000000000000000000000000000000000000008152600401610b2990612ba8565b60405180910390fd5b6000610b3d83610824565b90506000600760008581526020019081526020016000206000848152602001908152602001600020604051806080016040529081600082018054610b80906130d2565b80601f0160208091040260200160405190810160405280929190818152602001828054610bac906130d2565b8015610bf95780601f10610bce57610100808354040283529160200191610bf9565b820191906000526020600020905b815481529060010190602001808311610bdc57829003601f168201915b5050505050815260200160018201548152602001600282015481526020016003820160009054906101000a900460ff161515151581525050905080602001513414610c79576040517f08c379a0000000000000000000000000000000000000000000000000000000008152600401610c7090612da8565b60405180910390fd5b8173ffffffffffffffffffffffffffffffffffffffff166108fc349081150290604051600060405180830381858888f19350505050158015610cbf573d6000803e3d6000fd5b5060018160400151610cd19190612f4f565b81604001818152505050505050565b610cf2610ceb6115b1565b8383611ad4565b5050565b610cff82611545565b610d3e576040517f08c379a0000000000000000000000000000000000000000000000000000000008152600401610d3590612ba8565b60405180910390fd5b610d4782610824565b73ffffffffffffffffffffffffffffffffffffffff163373ffffffffffffffffffffffffffffffffffffffff1614610db4576040517f08c379a0000000000000000000000000000000000000000000000000000000008152600401610dab90612be8565b60405180910390fd5b6000600760008481526020019081526020016000206000838152602001908152602001600020604051806080016040529081600082018054610df5906130d2565b80601f0160208091040260200160405190810160405280929190818152602001828054610e21906130d2565b8015610e6e5780601f10610e4357610100808354040283529160200191610e6e565b820191906000526020600020905b815481529060010190602001808311610e5157829003601f168201915b5050505050815260200160018201548152602001600282015481526020016003820160009054906101000a900460ff16151515158152505090508060600151158160600190151590811515815250507f521c435f732e5f934eacdad1df112b0d7ee8f3782ebb8c1e0e969a9c09f4548d828260600151604051610ef2929190612e03565b60405180910390a1505050565b610f10610f0a6115b1565b83611672565b610f4f576040517f08c379a0000000000000000000000000000000000000000000000000000000008152600401610f4690612d88565b60405180910390fd5b610f5b84848484611c41565b50505050565b6060610f6c82611545565b610fab576040517f08c379a0000000000000000000000000000000000000000000000000000000008152600401610fa290612d48565b60405180910390fd5b6000610fb5611c9d565b90506000815111610fd55760405180602001604052806000815250611000565b80610fdf84611cb4565b604051602001610ff0929190612aa9565b6040516020818303038152906040525b915050919050565b6110126006611e61565b600061101e6006611e77565b905061102a3382611e85565b7f576c66bff00d12f99193898fa92d7368ed62bce0df0f4164b917f62fce71294f818360405161105b929190612e2c565b60405180910390a15050565b61107083611545565b6110af576040517f08c379a00000000000000000000000000000000000000000000000000000000081526004016110a690612ba8565b60405180910390fd5b6110b883610824565b73ffffffffffffffffffffffffffffffffffffffff163373ffffffffffffffffffffffffffffffffffffffff1614611125576040517f08c379a000000000000000000000000000000000000000000000000000000000815260040161111c90612be8565b60405180910390fd5b6000600760008581526020019081526020016000206000848152602001908152602001600020604051806080016040529081600082018054611166906130d2565b80601f0160208091040260200160405190810160405280929190818152602001828054611192906130d2565b80156111df5780601f106111b4576101008083540402835291602001916111df565b820191906000526020600020905b8154815290600101906020018083116111c257829003601f168201915b5050505050815260200160018201548152602001600282015481526020016003820160009054906101000a900460ff16151515158152505090508181602001511415611260576040517f08c379a000000000000000000000000000000000000000000000000000000000815260040161125790612dc8565b60405180910390fd5b818160200181815250507f945c1c4e99aa89f648fbfe3df471b916f719e16d960fcec0737d4d56bd696838838360405161129b929190612e5c565b60405180910390a150505050565b6112b282611545565b6112f1576040517f08c379a00000000000000000000000000000000000000000000000000000000081526004016112e890612ba8565b60405180910390fd5b6112fa82610824565b73ffffffffffffffffffffffffffffffffffffffff163373ffffffffffffffffffffffffffffffffffffffff1614611367576040517f08c379a000000000000000000000000000000000000000000000000000000000815260040161135e90612be8565b60405180910390fd5b604051806080016040528084815260200182815260200160008152602001600115158152506007600084815260200190815260200160002060006004815260200190815260200160002060008201518160000190805190602001906113cd929190612223565b50602082015181600101556040820151816002015560608201518160030160006101000a81548160ff0219169083151502179055509050507f7826174bbe73fb7c1029e4334bd590d4a49375d51c2be7caa26ceac2420c9a95600482600160405161143a93929190612b4f565b60405180910390a1505050565b6000600560008473ffffffffffffffffffffffffffffffffffffffff1673ffffffffffffffffffffffffffffffffffffffff16815260200190815260200160002060008373ffffffffffffffffffffffffffffffffffffffff1673ffffffffffffffffffffffffffffffffffffffff16815260200190815260200160002060009054906101000a900460ff16905092915050565b60007f01ffc9a7000000000000000000000000000000000000000000000000000000007bffffffffffffffffffffffffffffffffffffffffffffffffffffffff1916827bffffffffffffffffffffffffffffffffffffffffffffffffffffffff1916149050919050565b60008073ffffffffffffffffffffffffffffffffffffffff166002600084815260200190815260200160002060009054906101000a900473ffffffffffffffffffffffffffffffffffffffff1673ffffffffffffffffffffffffffffffffffffffff1614159050919050565b600033905090565b816004600083815260200190815260200160002060006101000a81548173ffffffffffffffffffffffffffffffffffffffff021916908373ffffffffffffffffffffffffffffffffffffffff160217905550808273ffffffffffffffffffffffffffffffffffffffff1661162c83610824565b73ffffffffffffffffffffffffffffffffffffffff167f8c5be1e5ebec7d5bd14f71427d1e84f3dd0314c0f7b2291e5b200ac8c7c3b92560405160405180910390a45050565b600061167d82611545565b6116bc576040517f08c379a00000000000000000000000000000000000000000000000000000000081526004016116b390612c88565b60405180910390fd5b60006116c783610824565b90508073ffffffffffffffffffffffffffffffffffffffff168473ffffffffffffffffffffffffffffffffffffffff16148061170957506117088185611447565b5b8061174757508373ffffffffffffffffffffffffffffffffffffffff1661172f84610607565b73ffffffffffffffffffffffffffffffffffffffff16145b91505092915050565b8273ffffffffffffffffffffffffffffffffffffffff1661177082610824565b73ffffffffffffffffffffffffffffffffffffffff16146117c6576040517f08c379a00000000000000000000000000000000000000000000000000000000081526004016117bd90612c08565b60405180910390fd5b600073ffffffffffffffffffffffffffffffffffffffff168273ffffffffffffffffffffffffffffffffffffffff161415611836576040517f08c379a000000000000000000000000000000000000000000000000000000000815260040161182d90612c48565b60405180910390fd5b61184183838361205f565b61184c6000826115b9565b6001600360008573ffffffffffffffffffffffffffffffffffffffff1673ffffffffffffffffffffffffffffffffffffffff168152602001908152602001600020600082825461189c9190612fd6565b925050819055506001600360008473ffffffffffffffffffffffffffffffffffffffff1673ffffffffffffffffffffffffffffffffffffffff16815260200190815260200160002060008282546118f39190612f4f565b92505081905550816002600083815260200190815260200160002060006101000a81548173ffffffffffffffffffffffffffffffffffffffff021916908373ffffffffffffffffffffffffffffffffffffffff160217905550808273ffffffffffffffffffffffffffffffffffffffff168473ffffffffffffffffffffffffffffffffffffffff167fddf252ad1be2c89b69c2b068fc378daa952ba7f163c4a11628f55a4df523b3ef60405160405180910390a46119b2838383612064565b505050565b60006119c282610824565b90506119d08160008461205f565b6119db6000836115b9565b6001600360008373ffffffffffffffffffffffffffffffffffffffff1673ffffffffffffffffffffffffffffffffffffffff1681526020019081526020016000206000828254611a2b9190612fd6565b925050819055506002600083815260200190815260200160002060006101000a81549073ffffffffffffffffffffffffffffffffffffffff021916905581600073ffffffffffffffffffffffffffffffffffffffff168273ffffffffffffffffffffffffffffffffffffffff167fddf252ad1be2c89b69c2b068fc378daa952ba7f163c4a11628f55a4df523b3ef60405160405180910390a4611ad081600084612064565b5050565b8173ffffffffffffffffffffffffffffffffffffffff168373ffffffffffffffffffffffffffffffffffffffff161415611b43576040517f08c379a0000000000000000000000000000000000000000000000000000000008152600401611b3a90612c68565b60405180910390fd5b80600560008573ffffffffffffffffffffffffffffffffffffffff1673ffffffffffffffffffffffffffffffffffffffff16815260200190815260200160002060008473ffffffffffffffffffffffffffffffffffffffff1673ffffffffffffffffffffffffffffffffffffffff16815260200190815260200160002060006101000a81548160ff0219169083151502179055508173ffffffffffffffffffffffffffffffffffffffff168373ffffffffffffffffffffffffffffffffffffffff167f17307eab39ab6107e8899845ad3d59bd9653f200f220920489ca2b5937696c3183604051611c349190612b34565b60405180910390a3505050565b611c4c848484611750565b611c5884848484612069565b611c97576040517f08c379a0000000000000000000000000000000000000000000000000000000008152600401611c8e90612bc8565b60405180910390fd5b50505050565b606060405180602001604052806000815250905090565b60606000821415611cfc576040518060400160405280600181526020017f30000000000000000000000000000000000000000000000000000000000000008152509050611e5c565b600082905060005b60008214611d2e578080611d1790613135565b915050600a82611d279190612fa5565b9150611d04565b60008167ffffffffffffffff811115611d70577f4e487b7100000000000000000000000000000000000000000000000000000000600052604160045260246000fd5b6040519080825280601f01601f191660200182016040528015611da25781602001600182028036833780820191505090505b5090505b60008514611e5557600182611dbb9190612fd6565b9150600a85611dca919061317e565b6030611dd69190612f4f565b60f81b818381518110611e12577f4e487b7100000000000000000000000000000000000000000000000000000000600052603260045260246000fd5b60200101907effffffffffffffffffffffffffffffffffffffffffffffffffffffffffffff1916908160001a905350600a85611e4e9190612fa5565b9450611da6565b8093505050505b919050565b6001816000016000828254019250508190555050565b600081600001549050919050565b600073ffffffffffffffffffffffffffffffffffffffff168273ffffffffffffffffffffffffffffffffffffffff161415611ef5576040517f08c379a0000000000000000000000000000000000000000000000000000000008152600401611eec90612d08565b60405180910390fd5b611efe81611545565b15611f3e576040517f08c379a0000000000000000000000000000000000000000000000000000000008152600401611f3590612c28565b60405180910390fd5b611f4a6000838361205f565b6001600360008473ffffffffffffffffffffffffffffffffffffffff1673ffffffffffffffffffffffffffffffffffffffff1681526020019081526020016000206000828254611f9a9190612f4f565b92505081905550816002600083815260200190815260200160002060006101000a81548173ffffffffffffffffffffffffffffffffffffffff021916908373ffffffffffffffffffffffffffffffffffffffff160217905550808273ffffffffffffffffffffffffffffffffffffffff16600073ffffffffffffffffffffffffffffffffffffffff167fddf252ad1be2c89b69c2b068fc378daa952ba7f163c4a11628f55a4df523b3ef60405160405180910390a461205b60008383612064565b5050565b505050565b505050565b600061208a8473ffffffffffffffffffffffffffffffffffffffff16612200565b156121f3578373ffffffffffffffffffffffffffffffffffffffff1663150b7a026120b36115b1565b8786866040518563ffffffff1660e01b81526004016120d59493929190612ae8565b602060405180830381600087803b1580156120ef57600080fd5b505af192505050801561212057506040513d601f19601f8201168201806040525081019061211d91906125cf565b60015b6121a3573d8060008114612150576040519150601f19603f3d011682016040523d82523d6000602084013e612155565b606091505b5060008151141561219b576040517f08c379a000000000000000000000000000000000000000000000000000000000815260040161219290612bc8565b60405180910390fd5b805181602001fd5b63150b7a0260e01b7bffffffffffffffffffffffffffffffffffffffffffffffffffffffff1916817bffffffffffffffffffffffffffffffffffffffffffffffffffffffff1916149150506121f8565b600190505b949350505050565b6000808273ffffffffffffffffffffffffffffffffffffffff163b119050919050565b82805461222f906130d2565b90600052602060002090601f0160209004810192826122515760008555612298565b82601f1061226a57805160ff1916838001178555612298565b82800160010185558215612298579182015b8281111561229757825182559160200191906001019061227c565b5b5090506122a591906122a9565b5090565b5b808211156122c25760008160009055506001016122aa565b5090565b60006122d96122d484612eaa565b612e85565b9050828152602081018484840111156122f157600080fd5b6122fc848285613090565b509392505050565b600061231761231284612edb565b612e85565b90508281526020810184848401111561232f57600080fd5b61233a848285613090565b509392505050565b60008135905061235181613700565b92915050565b60008135905061236681613717565b92915050565b60008135905061237b8161372e565b92915050565b6000815190506123908161372e565b92915050565b600082601f8301126123a757600080fd5b81356123b78482602086016122c6565b91505092915050565b600082601f8301126123d157600080fd5b81356123e1848260208601612304565b91505092915050565b6000813590506123f981613745565b92915050565b60006020828403121561241157600080fd5b600061241f84828501612342565b91505092915050565b6000806040838503121561243b57600080fd5b600061244985828601612342565b925050602061245a85828601612342565b9150509250929050565b60008060006060848603121561247957600080fd5b600061248786828701612342565b935050602061249886828701612342565b92505060406124a9868287016123ea565b9150509250925092565b600080600080608085870312156124c957600080fd5b60006124d787828801612342565b94505060206124e887828801612342565b93505060406124f9878288016123ea565b925050606085013567ffffffffffffffff81111561251657600080fd5b61252287828801612396565b91505092959194509250565b6000806040838503121561254157600080fd5b600061254f85828601612342565b925050602061256085828601612357565b9150509250929050565b6000806040838503121561257d57600080fd5b600061258b85828601612342565b925050602061259c858286016123ea565b9150509250929050565b6000602082840312156125b857600080fd5b60006125c68482850161236c565b91505092915050565b6000602082840312156125e157600080fd5b60006125ef84828501612381565b91505092915050565b60006020828403121561260a57600080fd5b600082013567ffffffffffffffff81111561262457600080fd5b612630848285016123c0565b91505092915050565b60008060006060848603121561264e57600080fd5b600084013567ffffffffffffffff81111561266857600080fd5b612674868287016123c0565b9350506020612685868287016123ea565b9250506040612696868287016123ea565b9150509250925092565b6000602082840312156126b257600080fd5b60006126c0848285016123ea565b91505092915050565b600080604083850312156126dc57600080fd5b60006126ea858286016123ea565b92505060206126fb858286016123ea565b9150509250929050565b60008060006060848603121561271a57600080fd5b6000612728868287016123ea565b9350506020612739868287016123ea565b925050604061274a868287016123ea565b9150509250925092565b61275d8161300a565b82525050565b61276c8161301c565b82525050565b600061277d82612f0c565b6127878185612f22565b935061279781856020860161309f565b6127a08161326b565b840191505092915050565b6127b48161307e565b82525050565b60006127c582612f17565b6127cf8185612f33565b93506127df81856020860161309f565b6127e88161326b565b840191505092915050565b60006127fe82612f17565b6128088185612f44565b935061281881856020860161309f565b80840191505092915050565b6000612831601383612f33565b915061283c8261327c565b602082019050919050565b6000612854603283612f33565b915061285f826132a5565b604082019050919050565b6000612877600e83612f33565b9150612882826132f4565b602082019050919050565b600061289a602583612f33565b91506128a58261331d565b604082019050919050565b60006128bd601c83612f33565b91506128c88261336c565b602082019050919050565b60006128e0602483612f33565b91506128eb82613395565b604082019050919050565b6000612903601983612f33565b915061290e826133e4565b602082019050919050565b6000612926602c83612f33565b91506129318261340d565b604082019050919050565b6000612949603883612f33565b91506129548261345c565b604082019050919050565b600061296c602a83612f33565b9150612977826134ab565b604082019050919050565b600061298f602983612f33565b915061299a826134fa565b604082019050919050565b60006129b2602083612f33565b91506129bd82613549565b602082019050919050565b60006129d5602c83612f33565b91506129e082613572565b604082019050919050565b60006129f8602f83612f33565b9150612a03826135c1565b604082019050919050565b6000612a1b602183612f33565b9150612a2682613610565b604082019050919050565b6000612a3e603183612f33565b9150612a498261365f565b604082019050919050565b6000612a61600c83612f33565b9150612a6c826136ae565b602082019050919050565b6000612a84601983612f33565b9150612a8f826136d7565b602082019050919050565b612aa381613074565b82525050565b6000612ab582856127f3565b9150612ac182846127f3565b91508190509392505050565b6000602082019050612ae26000830184612754565b92915050565b6000608082019050612afd6000830187612754565b612b0a6020830186612754565b612b176040830185612a9a565b8181036060830152612b298184612772565b905095945050505050565b6000602082019050612b496000830184612763565b92915050565b6000606082019050612b6460008301866127ab565b612b716020830185612a9a565b612b7e6040830184612763565b949350505050565b60006020820190508181036000830152612ba081846127ba565b905092915050565b60006020820190508181036000830152612bc181612824565b9050919050565b60006020820190508181036000830152612be181612847565b9050919050565b60006020820190508181036000830152612c018161286a565b9050919050565b60006020820190508181036000830152612c218161288d565b9050919050565b60006020820190508181036000830152612c41816128b0565b9050919050565b60006020820190508181036000830152612c61816128d3565b9050919050565b60006020820190508181036000830152612c81816128f6565b9050919050565b60006020820190508181036000830152612ca181612919565b9050919050565b60006020820190508181036000830152612cc18161293c565b9050919050565b60006020820190508181036000830152612ce18161295f565b9050919050565b60006020820190508181036000830152612d0181612982565b9050919050565b60006020820190508181036000830152612d21816129a5565b9050919050565b60006020820190508181036000830152612d41816129c8565b9050919050565b60006020820190508181036000830152612d61816129eb565b9050919050565b60006020820190508181036000830152612d8181612a0e565b9050919050565b60006020820190508181036000830152612da181612a31565b9050919050565b60006020820190508181036000830152612dc181612a54565b9050919050565b60006020820190508181036000830152612de181612a77565b9050919050565b6000602082019050612dfd6000830184612a9a565b92915050565b6000604082019050612e186000830185612a9a565b612e256020830184612763565b9392505050565b6000604082019050612e416000830185612a9a565b8181036020830152612e5381846127ba565b90509392505050565b6000604082019050612e716000830185612a9a565b612e7e6020830184612a9a565b9392505050565b6000612e8f612ea0565b9050612e9b8282613104565b919050565b6000604051905090565b600067ffffffffffffffff821115612ec557612ec461323c565b5b612ece8261326b565b9050602081019050919050565b600067ffffffffffffffff821115612ef657612ef561323c565b5b612eff8261326b565b9050602081019050919050565b600081519050919050565b600081519050919050565b600082825260208201905092915050565b600082825260208201905092915050565b600081905092915050565b6000612f5a82613074565b9150612f6583613074565b9250827fffffffffffffffffffffffffffffffffffffffffffffffffffffffffffffffff03821115612f9a57612f996131af565b5b828201905092915050565b6000612fb082613074565b9150612fbb83613074565b925082612fcb57612fca6131de565b5b828204905092915050565b6000612fe182613074565b9150612fec83613074565b925082821015612fff57612ffe6131af565b5b828203905092915050565b600061301582613054565b9050919050565b60008115159050919050565b60007fffffffff0000000000000000000000000000000000000000000000000000000082169050919050565b600073ffffffffffffffffffffffffffffffffffffffff82169050919050565b6000819050919050565b600061308982613074565b9050919050565b82818337600083830152505050565b60005b838110156130bd5780820151818401526020810190506130a2565b838111156130cc576000848401525b50505050565b600060028204905060018216806130ea57607f821691505b602082108114156130fe576130fd61320d565b5b50919050565b61310d8261326b565b810181811067ffffffffffffffff8211171561312c5761312b61323c565b5b80604052505050565b600061314082613074565b91507fffffffffffffffffffffffffffffffffffffffffffffffffffffffffffffffff821415613173576131726131af565b5b600182019050919050565b600061318982613074565b915061319483613074565b9250826131a4576131a36131de565b5b828206905092915050565b7f4e487b7100000000000000000000000000000000000000000000000000000000600052601160045260246000fd5b7f4e487b7100000000000000000000000000000000000000000000000000000000600052601260045260246000fd5b7f4e487b7100000000000000000000000000000000000000000000000000000000600052602260045260246000fd5b7f4e487b7100000000000000000000000000000000000000000000000000000000600052604160045260246000fd5b6000601f19601f8301169050919050565b7f73746f726520646f65736e277420657869737400000000000000000000000000600082015250565b7f4552433732313a207472616e7366657220746f206e6f6e20455243373231526560008201527f63656976657220696d706c656d656e7465720000000000000000000000000000602082015250565b7f6e6f7420796f75722073746f7265000000000000000000000000000000000000600082015250565b7f4552433732313a207472616e736665722066726f6d20696e636f72726563742060008201527f6f776e6572000000000000000000000000000000000000000000000000000000602082015250565b7f4552433732313a20746f6b656e20616c7265616479206d696e74656400000000600082015250565b7f4552433732313a207472616e7366657220746f20746865207a65726f2061646460008201527f7265737300000000000000000000000000000000000000000000000000000000602082015250565b7f4552433732313a20617070726f766520746f2063616c6c657200000000000000600082015250565b7f4552433732313a206f70657261746f7220717565727920666f72206e6f6e657860008201527f697374656e7420746f6b656e0000000000000000000000000000000000000000602082015250565b7f4552433732313a20617070726f76652063616c6c6572206973206e6f74206f7760008201527f6e6572206e6f7220617070726f76656420666f7220616c6c0000000000000000602082015250565b7f4552433732313a2062616c616e636520717565727920666f7220746865207a6560008201527f726f206164647265737300000000000000000000000000000000000000000000602082015250565b7f4552433732313a206f776e657220717565727920666f72206e6f6e657869737460008201527f656e7420746f6b656e0000000000000000000000000000000000000000000000602082015250565b7f4552433732313a206d696e7420746f20746865207a65726f2061646472657373600082015250565b7f4552433732313a20617070726f76656420717565727920666f72206e6f6e657860008201527f697374656e7420746f6b656e0000000000000000000000000000000000000000602082015250565b7f4552433732314d657461646174613a2055524920717565727920666f72206e6f60008201527f6e6578697374656e7420746f6b656e0000000000000000000000000000000000602082015250565b7f4552433732313a20617070726f76616c20746f2063757272656e74206f776e6560008201527f7200000000000000000000000000000000000000000000000000000000000000602082015250565b7f4552433732313a207472616e736665722063616c6c6572206973206e6f74206f60008201527f776e6572206e6f7220617070726f766564000000000000000000000000000000602082015250565b7f57726f6e6720616d6f756e740000000000000000000000000000000000000000600082015250565b7f70726963652073686f756c6420626520646966666572656e7400000000000000600082015250565b6137098161300a565b811461371457600080fd5b50565b6137208161301c565b811461372b57600080fd5b50565b61373781613028565b811461374257600080fd5b50565b61374e81613074565b811461375957600080fd5b5056fea26469706673582212208ebfaf602348d4ab9d71fd1ba44303a5e1afec344e8dce2326e79ef32b9a129464736f6c63430008040033",
  "linkReferences": {},
  "deployedLinkReferences": {}
}