{
  "_format": "hh-sol-artifact-1",
  "contractName": "StoreContract",
  "sourceName": "contracts/Store.sol",
  "abi": [
    {
      "inputs": [],
      "stateMutability": "nonpayable",
      "type": "constructor"
    },
    {
      "anonymous": false,
      "inputs": [
        {
          "indexed": true,
          "internalType": "address",
          "name": "owner",
          "type": "address"
        },
        {
          "indexed": true,
          "internalType": "address",
          "name": "approved",
          "type": "address"
        },
        {
          "indexed": true,
          "internalType": "uint256",
          "name": "tokenId",
          "type": "uint256"
        }
      ],
      "name": "Approval",
      "type": "event"
    },
    {
      "anonymous": false,
      "inputs": [
        {
          "indexed": true,
          "internalType": "address",
          "name": "owner",
          "type": "address"
        },
        {
          "indexed": true,
          "internalType": "address",
          "name": "operator",
          "type": "address"
        },
        {
          "indexed": false,
          "internalType": "bool",
          "name": "approved",
          "type": "bool"
        }
      ],
      "name": "ApprovalForAll",
      "type": "event"
    },
    {
      "anonymous": false,
      "inputs": [
        {
          "indexed": false,
          "internalType": "uint256",
          "name": "itemId",
          "type": "uint256"
        },
        {
          "indexed": false,
          "internalType": "bool",
          "name": "status",
          "type": "bool"
        }
      ],
      "name": "ChangeListingStatus",
      "type": "event"
    },
    {
      "anonymous": false,
      "inputs": [
        {
          "indexed": false,
          "internalType": "uint256",
          "name": "itemId",
          "type": "uint256"
        },
        {
          "indexed": false,
          "internalType": "address",
          "name": "storeOwner",
          "type": "address"
        },
        {
          "indexed": false,
          "internalType": "string",
          "name": "metadata",
          "type": "string"
        },
        {
          "indexed": false,
          "internalType": "string",
          "name": "category",
          "type": "string"
        }
      ],
      "name": "CreatedStore",
      "type": "event"
    },
    {
      "anonymous": false,
      "inputs": [
        {
          "indexed": false,
          "internalType": "uint256",
          "name": "storeId",
          "type": "uint256"
        },
        {
          "indexed": false,
          "internalType": "string",
          "name": "itemId",
          "type": "string"
        },
        {
          "indexed": false,
          "internalType": "string",
          "name": "metadata",
          "type": "string"
        },
        {
          "indexed": false,
          "internalType": "uint256",
          "name": "itemPrice",
          "type": "uint256"
        },
        {
          "indexed": false,
          "internalType": "uint256",
          "name": "orders",
          "type": "uint256"
        },
        {
          "indexed": false,
          "internalType": "bool",
          "name": "listingSatus",
          "type": "bool"
        }
      ],
      "name": "PostedItem",
      "type": "event"
    },
    {
      "anonymous": false,
      "inputs": [
        {
          "indexed": false,
          "internalType": "uint256",
          "name": "itemId",
          "type": "uint256"
        },
        {
          "indexed": false,
          "internalType": "uint256",
          "name": "newPrice",
          "type": "uint256"
        }
      ],
      "name": "PriceUpdated",
      "type": "event"
    },
    {
      "anonymous": false,
      "inputs": [
        {
          "indexed": true,
          "internalType": "address",
          "name": "from",
          "type": "address"
        },
        {
          "indexed": true,
          "internalType": "address",
          "name": "to",
          "type": "address"
        },
        {
          "indexed": true,
          "internalType": "uint256",
          "name": "tokenId",
          "type": "uint256"
        }
      ],
      "name": "Transfer",
      "type": "event"
    },
    {
      "inputs": [
        {
          "internalType": "address",
          "name": "to",
          "type": "address"
        },
        {
          "internalType": "uint256",
          "name": "tokenId",
          "type": "uint256"
        }
      ],
      "name": "approve",
      "outputs": [],
      "stateMutability": "nonpayable",
      "type": "function"
    },
    {
      "inputs": [
        {
          "internalType": "address",
          "name": "owner",
          "type": "address"
        }
      ],
      "name": "balanceOf",
      "outputs": [
        {
          "internalType": "uint256",
          "name": "",
          "type": "uint256"
        }
      ],
      "stateMutability": "view",
      "type": "function"
    },
    {
      "inputs": [
        {
          "internalType": "uint256",
          "name": "_storeId",
          "type": "uint256"
        },
        {
          "internalType": "string",
          "name": "_itemName",
          "type": "string"
        }
      ],
      "name": "buyItem",
      "outputs": [],
      "stateMutability": "payable",
      "type": "function"
    },
    {
      "inputs": [
        {
          "internalType": "uint256",
          "name": "_storeId",
          "type": "uint256"
        },
        {
          "internalType": "uint256",
          "name": "_itemId",
          "type": "uint256"
        },
        {
          "internalType": "string",
          "name": "_itemName",
          "type": "string"
        },
        {
          "internalType": "uint256",
          "name": "_newPrice",
          "type": "uint256"
        }
      ],
      "name": "changeItemPrice",
      "outputs": [],
      "stateMutability": "nonpayable",
      "type": "function"
    },
    {
      "inputs": [
        {
          "internalType": "uint256",
          "name": "_storeId",
          "type": "uint256"
        },
        {
          "internalType": "string",
          "name": "_itemName",
          "type": "string"
        },
        {
          "internalType": "uint256",
          "name": "_itemId",
          "type": "uint256"
        }
      ],
      "name": "changeListingStatus",
      "outputs": [],
      "stateMutability": "nonpayable",
      "type": "function"
    },
    {
      "inputs": [
        {
          "internalType": "string",
          "name": "_metadata",
          "type": "string"
        },
        {
          "internalType": "string",
          "name": "_category",
          "type": "string"
        }
      ],
      "name": "createStore",
      "outputs": [],
      "stateMutability": "nonpayable",
      "type": "function"
    },
    {
      "inputs": [
        {
          "internalType": "uint256",
          "name": "_storeId",
          "type": "uint256"
        }
      ],
      "name": "deleteStore",
      "outputs": [],
      "stateMutability": "nonpayable",
      "type": "function"
    },
    {
      "inputs": [
        {
          "internalType": "uint256",
          "name": "tokenId",
          "type": "uint256"
        }
      ],
      "name": "getApproved",
      "outputs": [
        {
          "internalType": "address",
          "name": "",
          "type": "address"
        }
      ],
      "stateMutability": "view",
      "type": "function"
    },
    {
      "inputs": [],
      "name": "getLatestPrice",
      "outputs": [
        {
          "internalType": "int256",
          "name": "",
          "type": "int256"
        }
      ],
      "stateMutability": "view",
      "type": "function"
    },
    {
      "inputs": [
        {
          "internalType": "address",
          "name": "owner",
          "type": "address"
        },
        {
          "internalType": "address",
          "name": "operator",
          "type": "address"
        }
      ],
      "name": "isApprovedForAll",
      "outputs": [
        {
          "internalType": "bool",
          "name": "",
          "type": "bool"
        }
      ],
      "stateMutability": "view",
      "type": "function"
    },
    {
      "inputs": [],
      "name": "name",
      "outputs": [
        {
          "internalType": "string",
          "name": "",
          "type": "string"
        }
      ],
      "stateMutability": "view",
      "type": "function"
    },
    {
      "inputs": [
        {
          "internalType": "uint256",
          "name": "tokenId",
          "type": "uint256"
        }
      ],
      "name": "ownerOf",
      "outputs": [
        {
          "internalType": "address",
          "name": "",
          "type": "address"
        }
      ],
      "stateMutability": "view",
      "type": "function"
    },
    {
      "inputs": [
        {
          "internalType": "string",
          "name": "_metadata",
          "type": "string"
        },
        {
          "internalType": "string",
          "name": "_itemName",
          "type": "string"
        },
        {
          "internalType": "uint256",
          "name": "_storeId",
          "type": "uint256"
        },
        {
          "internalType": "uint256",
          "name": "_price",
          "type": "uint256"
        }
      ],
      "name": "postItem",
      "outputs": [],
      "stateMutability": "nonpayable",
      "type": "function"
    },
    {
      "inputs": [
        {
          "internalType": "address",
          "name": "from",
          "type": "address"
        },
        {
          "internalType": "address",
          "name": "to",
          "type": "address"
        },
        {
          "internalType": "uint256",
          "name": "tokenId",
          "type": "uint256"
        }
      ],
      "name": "safeTransferFrom",
      "outputs": [],
      "stateMutability": "nonpayable",
      "type": "function"
    },
    {
      "inputs": [
        {
          "internalType": "address",
          "name": "from",
          "type": "address"
        },
        {
          "internalType": "address",
          "name": "to",
          "type": "address"
        },
        {
          "internalType": "uint256",
          "name": "tokenId",
          "type": "uint256"
        },
        {
          "internalType": "bytes",
          "name": "_data",
          "type": "bytes"
        }
      ],
      "name": "safeTransferFrom",
      "outputs": [],
      "stateMutability": "nonpayable",
      "type": "function"
    },
    {
      "inputs": [
        {
          "internalType": "address",
          "name": "operator",
          "type": "address"
        },
        {
          "internalType": "bool",
          "name": "approved",
          "type": "bool"
        }
      ],
      "name": "setApprovalForAll",
      "outputs": [],
      "stateMutability": "nonpayable",
      "type": "function"
    },
    {
      "inputs": [
        {
          "internalType": "bytes4",
          "name": "interfaceId",
          "type": "bytes4"
        }
      ],
      "name": "supportsInterface",
      "outputs": [
        {
          "internalType": "bool",
          "name": "",
          "type": "bool"
        }
      ],
      "stateMutability": "view",
      "type": "function"
    },
    {
      "inputs": [],
      "name": "symbol",
      "outputs": [
        {
          "internalType": "string",
          "name": "",
          "type": "string"
        }
      ],
      "stateMutability": "view",
      "type": "function"
    },
    {
      "inputs": [
        {
          "internalType": "uint256",
          "name": "tokenId",
          "type": "uint256"
        }
      ],
      "name": "tokenURI",
      "outputs": [
        {
          "internalType": "string",
          "name": "",
          "type": "string"
        }
      ],
      "stateMutability": "view",
      "type": "function"
    },
    {
      "inputs": [
        {
          "internalType": "address",
          "name": "from",
          "type": "address"
        },
        {
          "internalType": "address",
          "name": "to",
          "type": "address"
        },
        {
          "internalType": "uint256",
          "name": "tokenId",
          "type": "uint256"
        }
      ],
      "name": "transferFrom",
      "outputs": [],
      "stateMutability": "nonpayable",
      "type": "function"
    }
  ],
  "bytecode": "0x60806040523480156200001157600080fd5b506040518060400160405280600a81526020017f447265652053746f7265000000000000000000000000000000000000000000008152506040518060400160405280600381526020017f44535400000000000000000000000000000000000000000000000000000000008152508160009080519060200190620000969291906200010d565b508060019080519060200190620000af9291906200010d565b50505073d0d5e3db44de05e9f294bb0a3beeaf030de24ada600760006101000a81548173ffffffffffffffffffffffffffffffffffffffff021916908373ffffffffffffffffffffffffffffffffffffffff16021790555062000222565b8280546200011b90620001bd565b90600052602060002090601f0160209004810192826200013f57600085556200018b565b82601f106200015a57805160ff19168380011785556200018b565b828001600101855582156200018b579182015b828111156200018a5782518255916020019190600101906200016d565b5b5090506200019a91906200019e565b5090565b5b80821115620001b95760008160009055506001016200019f565b5090565b60006002820490506001821680620001d657607f821691505b60208210811415620001ed57620001ec620001f3565b5b50919050565b7f4e487b7100000000000000000000000000000000000000000000000000000000600052602260045260246000fd5b613b5380620002326000396000f3fe60806040526004361061011f5760003560e01c806371fd24dc116100a0578063af2b60a211610064578063af2b60a2146103d4578063b88d4fde146103fd578063c4f4034e14610426578063c87b56dd1461044f578063e985e9c51461048c5761011f565b806371fd24dc146103035780637cc693251461032c5780638e15f4731461035557806395d89b4114610380578063a22cb465146103ab5761011f565b806323b872dd116100e757806323b872dd1461021b57806342842e0e146102445780634e71b35c1461026d5780636352211e1461028957806370a08231146102c65761011f565b806301ffc9a71461012457806306fdde0314610161578063081812fc1461018c578063095ea7b3146101c95780631b20335d146101f2575b600080fd5b34801561013057600080fd5b5061014b60048036038101906101469190612704565b6104c9565b6040516101589190612e31565b60405180910390f35b34801561016d57600080fd5b506101766105ab565b6040516101839190612e67565b60405180910390f35b34801561019857600080fd5b506101b360048036038101906101ae9190612855565b61063d565b6040516101c09190612dca565b60405180910390f35b3480156101d557600080fd5b506101f060048036038101906101eb91906126c8565b6106c2565b005b3480156101fe57600080fd5b5061021960048036038101906102149190612756565b6107da565b005b34801561022757600080fd5b50610242600480360381019061023d91906125c2565b61083e565b005b34801561025057600080fd5b5061026b600480360381019061026691906125c2565b61089e565b005b6102876004803603810190610282919061287e565b6108be565b005b34801561029557600080fd5b506102b060048036038101906102ab9190612855565b610abf565b6040516102bd9190612dca565b60405180910390f35b3480156102d257600080fd5b506102ed60048036038101906102e8919061255d565b610b71565b6040516102fa91906130c9565b60405180910390f35b34801561030f57600080fd5b5061032a600480360381019061032591906128d2565b610c29565b005b34801561033857600080fd5b50610353600480360381019061034e9190612855565b610e3e565b005b34801561036157600080fd5b5061036a610f08565b6040516103779190612e4c565b60405180910390f35b34801561038c57600080fd5b50610395610fb8565b6040516103a29190612e67565b60405180910390f35b3480156103b757600080fd5b506103d260048036038101906103cd919061268c565b61104a565b005b3480156103e057600080fd5b506103fb60048036038101906103f691906127c2565b611060565b005b34801561040957600080fd5b50610424600480360381019061041f9190612611565b61120f565b005b34801561043257600080fd5b5061044d60048036038101906104489190612939565b611271565b005b34801561045b57600080fd5b5061047660048036038101906104719190612855565b6114bf565b6040516104839190612e67565b60405180910390f35b34801561049857600080fd5b506104b360048036038101906104ae9190612586565b611566565b6040516104c09190612e31565b60405180910390f35b60007f80ac58cd000000000000000000000000000000000000000000000000000000007bffffffffffffffffffffffffffffffffffffffffffffffffffffffff1916827bffffffffffffffffffffffffffffffffffffffffffffffffffffffff1916148061059457507f5b5e139f000000000000000000000000000000000000000000000000000000007bffffffffffffffffffffffffffffffffffffffffffffffffffffffff1916827bffffffffffffffffffffffffffffffffffffffffffffffffffffffff1916145b806105a457506105a3826115fa565b5b9050919050565b6060600080546105ba90613465565b80601f01602080910402602001604051908101604052809291908181526020018280546105e690613465565b80156106335780601f1061060857610100808354040283529160200191610633565b820191906000526020600020905b81548152906001019060200180831161061657829003601f168201915b5050505050905090565b600061064882611664565b610687576040517f08c379a000000000000000000000000000000000000000000000000000000000815260040161067e90613009565b60405180910390fd5b6004600083815260200190815260200160002060009054906101000a900473ffffffffffffffffffffffffffffffffffffffff169050919050565b60006106cd82610abf565b90508073ffffffffffffffffffffffffffffffffffffffff168373ffffffffffffffffffffffffffffffffffffffff16141561073e576040517f08c379a000000000000000000000000000000000000000000000000000000000815260040161073590613049565b60405180910390fd5b8073ffffffffffffffffffffffffffffffffffffffff1661075d6116d0565b73ffffffffffffffffffffffffffffffffffffffff16148061078c575061078b816107866116d0565b611566565b5b6107cb576040517f08c379a00000000000000000000000000000000000000000000000000000000081526004016107c290612f89565b60405180910390fd5b6107d583836116d8565b505050565b6107e46006611791565b60006107f060066117a7565b90506107fc33826117b5565b7f4656ee2535e29b248b9951bc8ee1e222bf14ca28e3ee361286fca6cb08123f348133858560405161083194939291906130e4565b60405180910390a1505050565b61084f6108496116d0565b8261198f565b61088e576040517f08c379a000000000000000000000000000000000000000000000000000000000815260040161088590613069565b60405180910390fd5b610899838383611a6d565b505050565b6108b98383836040518060200160405280600081525061120f565b505050565b6108c782611664565b610906576040517f08c379a00000000000000000000000000000000000000000000000000000000081526004016108fd90612e89565b60405180910390fd5b600061091183610abf565b9050600060086000858152602001908152602001600020836040516109369190612d8f565b908152602001604051809103902060405180608001604052908160008201805461095f90613465565b80601f016020809104026020016040519081016040528092919081815260200182805461098b90613465565b80156109d85780601f106109ad576101008083540402835291602001916109d8565b820191906000526020600020905b8154815290600101906020018083116109bb57829003601f168201915b5050505050815260200160018201548152602001600282015481526020016003820160009054906101000a900460ff161515151581525050905080602001513414610a58576040517f08c379a0000000000000000000000000000000000000000000000000000000008152600401610a4f90613089565b60405180910390fd5b8173ffffffffffffffffffffffffffffffffffffffff166108fc349081150290604051600060405180830381858888f19350505050158015610a9e573d6000803e3d6000fd5b5060018160400151610ab091906132c2565b81604001818152505050505050565b6000806002600084815260200190815260200160002060009054906101000a900473ffffffffffffffffffffffffffffffffffffffff169050600073ffffffffffffffffffffffffffffffffffffffff168173ffffffffffffffffffffffffffffffffffffffff161415610b68576040517f08c379a0000000000000000000000000000000000000000000000000000000008152600401610b5f90612fc9565b60405180910390fd5b80915050919050565b60008073ffffffffffffffffffffffffffffffffffffffff168273ffffffffffffffffffffffffffffffffffffffff161415610be2576040517f08c379a0000000000000000000000000000000000000000000000000000000008152600401610bd990612fa9565b60405180910390fd5b600360008373ffffffffffffffffffffffffffffffffffffffff1673ffffffffffffffffffffffffffffffffffffffff168152602001908152602001600020549050919050565b610c3283611664565b610c71576040517f08c379a0000000000000000000000000000000000000000000000000000000008152600401610c6890612e89565b60405180910390fd5b610c7a83610abf565b73ffffffffffffffffffffffffffffffffffffffff163373ffffffffffffffffffffffffffffffffffffffff1614610ce7576040517f08c379a0000000000000000000000000000000000000000000000000000000008152600401610cde90612ec9565b60405180910390fd5b60006008600085815260200190815260200160002083604051610d0a9190612d8f565b9081526020016040518091039020604051806080016040529081600082018054610d3390613465565b80601f0160208091040260200160405190810160405280929190818152602001828054610d5f90613465565b8015610dac5780601f10610d8157610100808354040283529160200191610dac565b820191906000526020600020905b815481529060010190602001808311610d8f57829003601f168201915b5050505050815260200160018201548152602001600282015481526020016003820160009054906101000a900460ff16151515158152505090508060600151158160600190151590811515815250507f521c435f732e5f934eacdad1df112b0d7ee8f3782ebb8c1e0e969a9c09f4548d828260600151604051610e30929190613137565b60405180910390a150505050565b610e4781611664565b610e86576040517f08c379a0000000000000000000000000000000000000000000000000000000008152600401610e7d90612e89565b60405180910390fd5b610e8f81610abf565b73ffffffffffffffffffffffffffffffffffffffff163373ffffffffffffffffffffffffffffffffffffffff1614610efc576040517f08c379a0000000000000000000000000000000000000000000000000000000008152600401610ef390612ec9565b60405180910390fd5b610f0581611cd4565b50565b600080600760009054906101000a900473ffffffffffffffffffffffffffffffffffffffff1673ffffffffffffffffffffffffffffffffffffffff1663feaf968c6040518163ffffffff1660e01b815260040160a06040518083038186803b158015610f7357600080fd5b505afa158015610f87573d6000803e3d6000fd5b505050506040513d601f19601f82011682018060405250810190610fab91906129b4565b5050509150508091505090565b606060018054610fc790613465565b80601f0160208091040260200160405190810160405280929190818152602001828054610ff390613465565b80156110405780601f1061101557610100808354040283529160200191611040565b820191906000526020600020905b81548152906001019060200180831161102357829003601f168201915b5050505050905090565b61105c6110556116d0565b8383611df1565b5050565b61106982611664565b6110a8576040517f08c379a000000000000000000000000000000000000000000000000000000000815260040161109f90612e89565b60405180910390fd5b6110b182610abf565b73ffffffffffffffffffffffffffffffffffffffff163373ffffffffffffffffffffffffffffffffffffffff161461111e576040517f08c379a000000000000000000000000000000000000000000000000000000000815260040161111590612ec9565b60405180910390fd5b6040518060800160405280858152602001828152602001600081526020016001151581525060086000848152602001908152602001600020846040516111649190612d8f565b9081526020016040518091039020600082015181600001908051906020019061118e929190612342565b50602082015181600101556040820151816002015560608201518160030160006101000a81548160ff0219169083151502179055509050507fca7997c8a74c58fb0384e8f5954773931c31083eff60291cfdd526f48554dbb9828486846000600160405161120196959493929190613160565b60405180910390a150505050565b61122061121a6116d0565b8361198f565b61125f576040517f08c379a000000000000000000000000000000000000000000000000000000000815260040161125690613069565b60405180910390fd5b61126b84848484611f5e565b50505050565b61127a84611664565b6112b9576040517f08c379a00000000000000000000000000000000000000000000000000000000081526004016112b090612e89565b60405180910390fd5b6112c284610abf565b73ffffffffffffffffffffffffffffffffffffffff163373ffffffffffffffffffffffffffffffffffffffff161461132f576040517f08c379a000000000000000000000000000000000000000000000000000000000815260040161132690612ec9565b60405180910390fd5b600060086000868152602001908152602001600020836040516113529190612d8f565b908152602001604051809103902060405180608001604052908160008201805461137b90613465565b80601f01602080910402602001604051908101604052809291908181526020018280546113a790613465565b80156113f45780601f106113c9576101008083540402835291602001916113f4565b820191906000526020600020905b8154815290600101906020018083116113d757829003601f168201915b5050505050815260200160018201548152602001600282015481526020016003820160009054906101000a900460ff16151515158152505090508181602001511415611475576040517f08c379a000000000000000000000000000000000000000000000000000000000815260040161146c906130a9565b60405180910390fd5b818160200181815250507f945c1c4e99aa89f648fbfe3df471b916f719e16d960fcec0737d4d56bd69683884836040516114b09291906131cf565b60405180910390a15050505050565b60606114ca82611664565b611509576040517f08c379a000000000000000000000000000000000000000000000000000000000815260040161150090613029565b60405180910390fd5b6000611513611fba565b90506000815111611533576040518060200160405280600081525061155e565b8061153d84611fd1565b60405160200161154e929190612da6565b6040516020818303038152906040525b915050919050565b6000600560008473ffffffffffffffffffffffffffffffffffffffff1673ffffffffffffffffffffffffffffffffffffffff16815260200190815260200160002060008373ffffffffffffffffffffffffffffffffffffffff1673ffffffffffffffffffffffffffffffffffffffff16815260200190815260200160002060009054906101000a900460ff16905092915050565b60007f01ffc9a7000000000000000000000000000000000000000000000000000000007bffffffffffffffffffffffffffffffffffffffffffffffffffffffff1916827bffffffffffffffffffffffffffffffffffffffffffffffffffffffff1916149050919050565b60008073ffffffffffffffffffffffffffffffffffffffff166002600084815260200190815260200160002060009054906101000a900473ffffffffffffffffffffffffffffffffffffffff1673ffffffffffffffffffffffffffffffffffffffff1614159050919050565b600033905090565b816004600083815260200190815260200160002060006101000a81548173ffffffffffffffffffffffffffffffffffffffff021916908373ffffffffffffffffffffffffffffffffffffffff160217905550808273ffffffffffffffffffffffffffffffffffffffff1661174b83610abf565b73ffffffffffffffffffffffffffffffffffffffff167f8c5be1e5ebec7d5bd14f71427d1e84f3dd0314c0f7b2291e5b200ac8c7c3b92560405160405180910390a45050565b6001816000016000828254019250508190555050565b600081600001549050919050565b600073ffffffffffffffffffffffffffffffffffffffff168273ffffffffffffffffffffffffffffffffffffffff161415611825576040517f08c379a000000000000000000000000000000000000000000000000000000000815260040161181c90612fe9565b60405180910390fd5b61182e81611664565b1561186e576040517f08c379a000000000000000000000000000000000000000000000000000000000815260040161186590612f09565b60405180910390fd5b61187a6000838361217e565b6001600360008473ffffffffffffffffffffffffffffffffffffffff1673ffffffffffffffffffffffffffffffffffffffff16815260200190815260200160002060008282546118ca91906132c2565b92505081905550816002600083815260200190815260200160002060006101000a81548173ffffffffffffffffffffffffffffffffffffffff021916908373ffffffffffffffffffffffffffffffffffffffff160217905550808273ffffffffffffffffffffffffffffffffffffffff16600073ffffffffffffffffffffffffffffffffffffffff167fddf252ad1be2c89b69c2b068fc378daa952ba7f163c4a11628f55a4df523b3ef60405160405180910390a461198b60008383612183565b5050565b600061199a82611664565b6119d9576040517f08c379a00000000000000000000000000000000000000000000000000000000081526004016119d090612f69565b60405180910390fd5b60006119e483610abf565b90508073ffffffffffffffffffffffffffffffffffffffff168473ffffffffffffffffffffffffffffffffffffffff161480611a265750611a258185611566565b5b80611a6457508373ffffffffffffffffffffffffffffffffffffffff16611a4c8461063d565b73ffffffffffffffffffffffffffffffffffffffff16145b91505092915050565b8273ffffffffffffffffffffffffffffffffffffffff16611a8d82610abf565b73ffffffffffffffffffffffffffffffffffffffff1614611ae3576040517f08c379a0000000000000000000000000000000000000000000000000000000008152600401611ada90612ee9565b60405180910390fd5b600073ffffffffffffffffffffffffffffffffffffffff168273ffffffffffffffffffffffffffffffffffffffff161415611b53576040517f08c379a0000000000000000000000000000000000000000000000000000000008152600401611b4a90612f29565b60405180910390fd5b611b5e83838361217e565b611b696000826116d8565b6001600360008573ffffffffffffffffffffffffffffffffffffffff1673ffffffffffffffffffffffffffffffffffffffff1681526020019081526020016000206000828254611bb99190613349565b925050819055506001600360008473ffffffffffffffffffffffffffffffffffffffff1673ffffffffffffffffffffffffffffffffffffffff1681526020019081526020016000206000828254611c1091906132c2565b92505081905550816002600083815260200190815260200160002060006101000a81548173ffffffffffffffffffffffffffffffffffffffff021916908373ffffffffffffffffffffffffffffffffffffffff160217905550808273ffffffffffffffffffffffffffffffffffffffff168473ffffffffffffffffffffffffffffffffffffffff167fddf252ad1be2c89b69c2b068fc378daa952ba7f163c4a11628f55a4df523b3ef60405160405180910390a4611ccf838383612183565b505050565b6000611cdf82610abf565b9050611ced8160008461217e565b611cf86000836116d8565b6001600360008373ffffffffffffffffffffffffffffffffffffffff1673ffffffffffffffffffffffffffffffffffffffff1681526020019081526020016000206000828254611d489190613349565b925050819055506002600083815260200190815260200160002060006101000a81549073ffffffffffffffffffffffffffffffffffffffff021916905581600073ffffffffffffffffffffffffffffffffffffffff168273ffffffffffffffffffffffffffffffffffffffff167fddf252ad1be2c89b69c2b068fc378daa952ba7f163c4a11628f55a4df523b3ef60405160405180910390a4611ded81600084612183565b5050565b8173ffffffffffffffffffffffffffffffffffffffff168373ffffffffffffffffffffffffffffffffffffffff161415611e60576040517f08c379a0000000000000000000000000000000000000000000000000000000008152600401611e5790612f49565b60405180910390fd5b80600560008573ffffffffffffffffffffffffffffffffffffffff1673ffffffffffffffffffffffffffffffffffffffff16815260200190815260200160002060008473ffffffffffffffffffffffffffffffffffffffff1673ffffffffffffffffffffffffffffffffffffffff16815260200190815260200160002060006101000a81548160ff0219169083151502179055508173ffffffffffffffffffffffffffffffffffffffff168373ffffffffffffffffffffffffffffffffffffffff167f17307eab39ab6107e8899845ad3d59bd9653f200f220920489ca2b5937696c3183604051611f519190612e31565b60405180910390a3505050565b611f69848484611a6d565b611f7584848484612188565b611fb4576040517f08c379a0000000000000000000000000000000000000000000000000000000008152600401611fab90612ea9565b60405180910390fd5b50505050565b606060405180602001604052806000815250905090565b60606000821415612019576040518060400160405280600181526020017f30000000000000000000000000000000000000000000000000000000000000008152509050612179565b600082905060005b6000821461204b578080612034906134c8565b915050600a826120449190613318565b9150612021565b60008167ffffffffffffffff81111561208d577f4e487b7100000000000000000000000000000000000000000000000000000000600052604160045260246000fd5b6040519080825280601f01601f1916602001820160405280156120bf5781602001600182028036833780820191505090505b5090505b60008514612172576001826120d89190613349565b9150600a856120e79190613511565b60306120f391906132c2565b60f81b81838151811061212f577f4e487b7100000000000000000000000000000000000000000000000000000000600052603260045260246000fd5b60200101907effffffffffffffffffffffffffffffffffffffffffffffffffffffffffffff1916908160001a905350600a8561216b9190613318565b94506120c3565b8093505050505b919050565b505050565b505050565b60006121a98473ffffffffffffffffffffffffffffffffffffffff1661231f565b15612312578373ffffffffffffffffffffffffffffffffffffffff1663150b7a026121d26116d0565b8786866040518563ffffffff1660e01b81526004016121f49493929190612de5565b602060405180830381600087803b15801561220e57600080fd5b505af192505050801561223f57506040513d601f19601f8201168201806040525081019061223c919061272d565b60015b6122c2573d806000811461226f576040519150601f19603f3d011682016040523d82523d6000602084013e612274565b606091505b506000815114156122ba576040517f08c379a00000000000000000000000000000000000000000000000000000000081526004016122b190612ea9565b60405180910390fd5b805181602001fd5b63150b7a0260e01b7bffffffffffffffffffffffffffffffffffffffffffffffffffffffff1916817bffffffffffffffffffffffffffffffffffffffffffffffffffffffff191614915050612317565b600190505b949350505050565b6000808273ffffffffffffffffffffffffffffffffffffffff163b119050919050565b82805461234e90613465565b90600052602060002090601f01602090048101928261237057600085556123b7565b82601f1061238957805160ff19168380011785556123b7565b828001600101855582156123b7579182015b828111156123b657825182559160200191906001019061239b565b5b5090506123c491906123c8565b5090565b5b808211156123e15760008160009055506001016123c9565b5090565b60006123f86123f38461321d565b6131f8565b90508281526020810184848401111561241057600080fd5b61241b848285613423565b509392505050565b60006124366124318461324e565b6131f8565b90508281526020810184848401111561244e57600080fd5b612459848285613423565b509392505050565b60008135905061247081613a93565b92915050565b60008135905061248581613aaa565b92915050565b60008135905061249a81613ac1565b92915050565b6000815190506124af81613ac1565b92915050565b600082601f8301126124c657600080fd5b81356124d68482602086016123e5565b91505092915050565b6000815190506124ee81613ad8565b92915050565b600082601f83011261250557600080fd5b8135612515848260208601612423565b91505092915050565b60008135905061252d81613aef565b92915050565b60008151905061254281613aef565b92915050565b60008151905061255781613b06565b92915050565b60006020828403121561256f57600080fd5b600061257d84828501612461565b91505092915050565b6000806040838503121561259957600080fd5b60006125a785828601612461565b92505060206125b885828601612461565b9150509250929050565b6000806000606084860312156125d757600080fd5b60006125e586828701612461565b93505060206125f686828701612461565b92505060406126078682870161251e565b9150509250925092565b6000806000806080858703121561262757600080fd5b600061263587828801612461565b945050602061264687828801612461565b93505060406126578782880161251e565b925050606085013567ffffffffffffffff81111561267457600080fd5b612680878288016124b5565b91505092959194509250565b6000806040838503121561269f57600080fd5b60006126ad85828601612461565b92505060206126be85828601612476565b9150509250929050565b600080604083850312156126db57600080fd5b60006126e985828601612461565b92505060206126fa8582860161251e565b9150509250929050565b60006020828403121561271657600080fd5b60006127248482850161248b565b91505092915050565b60006020828403121561273f57600080fd5b600061274d848285016124a0565b91505092915050565b6000806040838503121561276957600080fd5b600083013567ffffffffffffffff81111561278357600080fd5b61278f858286016124f4565b925050602083013567ffffffffffffffff8111156127ac57600080fd5b6127b8858286016124f4565b9150509250929050565b600080600080608085870312156127d857600080fd5b600085013567ffffffffffffffff8111156127f257600080fd5b6127fe878288016124f4565b945050602085013567ffffffffffffffff81111561281b57600080fd5b612827878288016124f4565b93505060406128388782880161251e565b92505060606128498782880161251e565b91505092959194509250565b60006020828403121561286757600080fd5b60006128758482850161251e565b91505092915050565b6000806040838503121561289157600080fd5b600061289f8582860161251e565b925050602083013567ffffffffffffffff8111156128bc57600080fd5b6128c8858286016124f4565b9150509250929050565b6000806000606084860312156128e757600080fd5b60006128f58682870161251e565b935050602084013567ffffffffffffffff81111561291257600080fd5b61291e868287016124f4565b925050604061292f8682870161251e565b9150509250925092565b6000806000806080858703121561294f57600080fd5b600061295d8782880161251e565b945050602061296e8782880161251e565b935050604085013567ffffffffffffffff81111561298b57600080fd5b612997878288016124f4565b92505060606129a88782880161251e565b91505092959194509250565b600080600080600060a086880312156129cc57600080fd5b60006129da88828901612548565b95505060206129eb888289016124df565b94505060406129fc88828901612533565b9350506060612a0d88828901612533565b9250506080612a1e88828901612548565b9150509295509295909350565b612a348161337d565b82525050565b612a438161338f565b82525050565b6000612a548261327f565b612a5e8185613295565b9350612a6e818560208601613432565b612a77816135fe565b840191505092915050565b612a8b816133c7565b82525050565b612a9a81613411565b82525050565b6000612aab8261328a565b612ab581856132a6565b9350612ac5818560208601613432565b612ace816135fe565b840191505092915050565b6000612ae48261328a565b612aee81856132b7565b9350612afe818560208601613432565b80840191505092915050565b6000612b176013836132a6565b9150612b228261360f565b602082019050919050565b6000612b3a6032836132a6565b9150612b4582613638565b604082019050919050565b6000612b5d600e836132a6565b9150612b6882613687565b602082019050919050565b6000612b806025836132a6565b9150612b8b826136b0565b604082019050919050565b6000612ba3601c836132a6565b9150612bae826136ff565b602082019050919050565b6000612bc66024836132a6565b9150612bd182613728565b604082019050919050565b6000612be96019836132a6565b9150612bf482613777565b602082019050919050565b6000612c0c602c836132a6565b9150612c17826137a0565b604082019050919050565b6000612c2f6038836132a6565b9150612c3a826137ef565b604082019050919050565b6000612c52602a836132a6565b9150612c5d8261383e565b604082019050919050565b6000612c756029836132a6565b9150612c808261388d565b604082019050919050565b6000612c986020836132a6565b9150612ca3826138dc565b602082019050919050565b6000612cbb602c836132a6565b9150612cc682613905565b604082019050919050565b6000612cde602f836132a6565b9150612ce982613954565b604082019050919050565b6000612d016021836132a6565b9150612d0c826139a3565b604082019050919050565b6000612d246031836132a6565b9150612d2f826139f2565b604082019050919050565b6000612d47600c836132a6565b9150612d5282613a41565b602082019050919050565b6000612d6a6019836132a6565b9150612d7582613a6a565b602082019050919050565b612d89816133f1565b82525050565b6000612d9b8284612ad9565b915081905092915050565b6000612db28285612ad9565b9150612dbe8284612ad9565b91508190509392505050565b6000602082019050612ddf6000830184612a2b565b92915050565b6000608082019050612dfa6000830187612a2b565b612e076020830186612a2b565b612e146040830185612d80565b8181036060830152612e268184612a49565b905095945050505050565b6000602082019050612e466000830184612a3a565b92915050565b6000602082019050612e616000830184612a82565b92915050565b60006020820190508181036000830152612e818184612aa0565b905092915050565b60006020820190508181036000830152612ea281612b0a565b9050919050565b60006020820190508181036000830152612ec281612b2d565b9050919050565b60006020820190508181036000830152612ee281612b50565b9050919050565b60006020820190508181036000830152612f0281612b73565b9050919050565b60006020820190508181036000830152612f2281612b96565b9050919050565b60006020820190508181036000830152612f4281612bb9565b9050919050565b60006020820190508181036000830152612f6281612bdc565b9050919050565b60006020820190508181036000830152612f8281612bff565b9050919050565b60006020820190508181036000830152612fa281612c22565b9050919050565b60006020820190508181036000830152612fc281612c45565b9050919050565b60006020820190508181036000830152612fe281612c68565b9050919050565b6000602082019050818103600083015261300281612c8b565b9050919050565b6000602082019050818103600083015261302281612cae565b9050919050565b6000602082019050818103600083015261304281612cd1565b9050919050565b6000602082019050818103600083015261306281612cf4565b9050919050565b6000602082019050818103600083015261308281612d17565b9050919050565b600060208201905081810360008301526130a281612d3a565b9050919050565b600060208201905081810360008301526130c281612d5d565b9050919050565b60006020820190506130de6000830184612d80565b92915050565b60006080820190506130f96000830187612d80565b6131066020830186612a2b565b81810360408301526131188185612aa0565b9050818103606083015261312c8184612aa0565b905095945050505050565b600060408201905061314c6000830185612d80565b6131596020830184612a3a565b9392505050565b600060c0820190506131756000830189612d80565b81810360208301526131878188612aa0565b9050818103604083015261319b8187612aa0565b90506131aa6060830186612d80565b6131b76080830185612a91565b6131c460a0830184612a3a565b979650505050505050565b60006040820190506131e46000830185612d80565b6131f16020830184612d80565b9392505050565b6000613202613213565b905061320e8282613497565b919050565b6000604051905090565b600067ffffffffffffffff821115613238576132376135cf565b5b613241826135fe565b9050602081019050919050565b600067ffffffffffffffff821115613269576132686135cf565b5b613272826135fe565b9050602081019050919050565b600081519050919050565b600081519050919050565b600082825260208201905092915050565b600082825260208201905092915050565b600081905092915050565b60006132cd826133f1565b91506132d8836133f1565b9250827fffffffffffffffffffffffffffffffffffffffffffffffffffffffffffffffff0382111561330d5761330c613542565b5b828201905092915050565b6000613323826133f1565b915061332e836133f1565b92508261333e5761333d613571565b5b828204905092915050565b6000613354826133f1565b915061335f836133f1565b92508282101561337257613371613542565b5b828203905092915050565b6000613388826133d1565b9050919050565b60008115159050919050565b60007fffffffff0000000000000000000000000000000000000000000000000000000082169050919050565b6000819050919050565b600073ffffffffffffffffffffffffffffffffffffffff82169050919050565b6000819050919050565b600069ffffffffffffffffffff82169050919050565b600061341c826133f1565b9050919050565b82818337600083830152505050565b60005b83811015613450578082015181840152602081019050613435565b8381111561345f576000848401525b50505050565b6000600282049050600182168061347d57607f821691505b60208210811415613491576134906135a0565b5b50919050565b6134a0826135fe565b810181811067ffffffffffffffff821117156134bf576134be6135cf565b5b80604052505050565b60006134d3826133f1565b91507fffffffffffffffffffffffffffffffffffffffffffffffffffffffffffffffff82141561350657613505613542565b5b600182019050919050565b600061351c826133f1565b9150613527836133f1565b92508261353757613536613571565b5b828206905092915050565b7f4e487b7100000000000000000000000000000000000000000000000000000000600052601160045260246000fd5b7f4e487b7100000000000000000000000000000000000000000000000000000000600052601260045260246000fd5b7f4e487b7100000000000000000000000000000000000000000000000000000000600052602260045260246000fd5b7f4e487b7100000000000000000000000000000000000000000000000000000000600052604160045260246000fd5b6000601f19601f8301169050919050565b7f73746f726520646f65736e277420657869737400000000000000000000000000600082015250565b7f4552433732313a207472616e7366657220746f206e6f6e20455243373231526560008201527f63656976657220696d706c656d656e7465720000000000000000000000000000602082015250565b7f6e6f7420796f75722073746f7265000000000000000000000000000000000000600082015250565b7f4552433732313a207472616e736665722066726f6d20696e636f72726563742060008201527f6f776e6572000000000000000000000000000000000000000000000000000000602082015250565b7f4552433732313a20746f6b656e20616c7265616479206d696e74656400000000600082015250565b7f4552433732313a207472616e7366657220746f20746865207a65726f2061646460008201527f7265737300000000000000000000000000000000000000000000000000000000602082015250565b7f4552433732313a20617070726f766520746f2063616c6c657200000000000000600082015250565b7f4552433732313a206f70657261746f7220717565727920666f72206e6f6e657860008201527f697374656e7420746f6b656e0000000000000000000000000000000000000000602082015250565b7f4552433732313a20617070726f76652063616c6c6572206973206e6f74206f7760008201527f6e6572206e6f7220617070726f76656420666f7220616c6c0000000000000000602082015250565b7f4552433732313a2062616c616e636520717565727920666f7220746865207a6560008201527f726f206164647265737300000000000000000000000000000000000000000000602082015250565b7f4552433732313a206f776e657220717565727920666f72206e6f6e657869737460008201527f656e7420746f6b656e0000000000000000000000000000000000000000000000602082015250565b7f4552433732313a206d696e7420746f20746865207a65726f2061646472657373600082015250565b7f4552433732313a20617070726f76656420717565727920666f72206e6f6e657860008201527f697374656e7420746f6b656e0000000000000000000000000000000000000000602082015250565b7f4552433732314d657461646174613a2055524920717565727920666f72206e6f60008201527f6e6578697374656e7420746f6b656e0000000000000000000000000000000000602082015250565b7f4552433732313a20617070726f76616c20746f2063757272656e74206f776e6560008201527f7200000000000000000000000000000000000000000000000000000000000000602082015250565b7f4552433732313a207472616e736665722063616c6c6572206973206e6f74206f60008201527f776e6572206e6f7220617070726f766564000000000000000000000000000000602082015250565b7f57726f6e6720616d6f756e740000000000000000000000000000000000000000600082015250565b7f70726963652073686f756c6420626520646966666572656e7400000000000000600082015250565b613a9c8161337d565b8114613aa757600080fd5b50565b613ab38161338f565b8114613abe57600080fd5b50565b613aca8161339b565b8114613ad557600080fd5b50565b613ae1816133c7565b8114613aec57600080fd5b50565b613af8816133f1565b8114613b0357600080fd5b50565b613b0f816133fb565b8114613b1a57600080fd5b5056fea264697066735822122008fa8108f22df982da75dc51dc507dcb5f1812d42ee2eac45019de6fc5864b7064736f6c63430008040033",
  "linkReferences": {},
  "deployedLinkReferences": {}
}